:100000000C9446000C9465000C9465000C946500FB
:100010000C9465000C9465000C9465000C946500CC
:100020000C9465000C9465000C9465000C946500BC
:100030000C9465000C9465000C9465000C946500AC
:100040000C9465000C9465000C9465000C9465009C
:100050000C9465000C9465000C9465000C9465008C
:100060000C9465000C9465000C9465000C9465007C
:100070000C9465000C9465000C9465000C9465006C
:100080000C9465000C9465000C94650011241FBE4F
:10009000CFEFD0E1DEBFCDBF11E0A0E0B1E0E8E0FE
:1000A000F3E000E00BBF02C007900D92A63FB1073E
:1000B000D9F711E0A6EFB1E001C01D92AC3FB10746
:1000C000E1F70E9467000C9482010C940000CF922B
:1000D000DF92EF92FF920F931F93DF93CF93CDB7F1
:1000E000DEB7CF5FD0400FB6F894DEBF0FBECDBFF6
:1000F0000E94FD0080E091E00E944D0188E391E0C4
:100100000E944D0180E091E00E944D018FEF8ABB7B
:100110000E940E0181E791E00E944D0100E010E095
:100120009AEFE92EF12CC801602F0E941D01C70132
:100130000197F1F70F5F1F4F0F3F1105A1F78DE8F2
:1001400091E00E944D0100E010E07E010894E11C66
:10015000F11C8AEFC82ED12CC8010E943201F70190
:10016000E00FF11F8083C6010197F1F70F5F1F4F6A
:100170000F3F110589F7F70120E0AE0140505F4FB6
:100180009E2F9E198081891709F42F5F3196E417FD
:10019000F507B1F72F3F29F488EA91E00E944D015D
:1001A00004C086EC91E00E944D01FFCF1F93182FF1
:1001B0008A3019F48DE00E94D6005D9BFECF1CB9F9
:1001C00080E090E01F9108955D9BFECF8CB908956B
:1001D0005F9B07C08BB19CB18C7119F4292F30E063
:1001E00002C02FEF3FEFC90108955F9BFECF8BB197
:1001F0009CB18C71D1F7892F08951BB888E98AB911
:1002000086E080939500109290008FE289B988EE85
:1002100091E09093F9018093F801089587B3876086
:1002200087BB88B3887F88BB80E58DB981E08EB9B4
:1002300008958FB9779BFECF0895282FC09884E842
:100240008FB9779BFECF8FEF8FB9779BFECF9FB98A
:10025000779BFECF2FB9779BFECF6FB9779BFECFF1
:10026000C09A0895282FC09884ED8FB9779BFECF50
:100270008FEF8FB9779BFECF9FB9779BFECF2FB9BA
:10028000779BFECF8FEF8FB9779BFECF8FEF8FB924
:10029000779BFECF8FB1C09A08950F931F93CF9392
:1002A000DF938C01E091F801F091F901838181FFE6
:1002B00021C0C0E0D0E00DC0E091F801F091F9015B
:1002C00020853185BF01F9010995892B11F0CFEF08
:1002D000DFEFF80181918F01882371F7E091F80138
:1002E000F091F901208531858AE0BF01F901099576
:1002F000892B11F0CFEFDFEFCE01DF91CF911F916E
:080300000F910895F894FFCF5E
:100308002A2D2D2D2D2D2D2D2D2D2D2D2D2D2D2D18
:100318002D2D2D2D2D2D2D2D2D2D2D2D2D2D2D2D05
:100328002D2D2D2D2D2D2D2D2D2D2D2D2D2D2D2DF5
:100338002D2D2D2D202A0D002A2D2D2D2D2D2D2D45
:100348002D2D2D2D2D2D2D2D2D2D2D2D415434358B
:1003580044425858206578706572696D656E742DD1
:100368002D2D2D2D2D2D2D2D2D2D2D2D2D202A0DE5
:100378000046414C53482041543435444258582093
:1003880057726974652054657374200D0046414C9A
:1003980053482041543435444258582052656164CA
:1003A8002054657374200D0046414C534820415435
:1003B800343544425858205265616420546573743A
:1003C800204F4B200D0046414C53482041543435B2
:1003D80044425858205265616420546573742066FD
:1003E80061696C7572650D00000000020000000074
:0603F800D6000000000029
:00000001FF
