:100000000C9446000C9465000C9465000C946500FB
:100010000C9465000C9465000C9465000C946500CC
:100020000C9465000C9465000C9465000C946500BC
:100030000C9465000C9465000C9465000C946500AC
:100040000C9465000C9465000C9465000C9465009C
:100050000C9465000C9465000C9465000C9465008C
:100060000C9465000C9465000C9465000C9465007C
:100070000C9465000C9465000C9465000C9465006C
:100080000C9465000C9465000C94650011241FBE4F
:10009000CFEFD0E1DEBFCDBF11E0A0E0B1E0EAE5F7
:1000A000FAE000E00BBF02C007900D92AA3BB10737
:1000B000D9F711E0AAEBB1E001C01D92A03CB10755
:1000C000E1F70E9467000C942B050C940000DF936D
:1000D000CF930F92CDB7DEB70E94EC0080E091E0A5
:1000E0000E94500288E391E00E94500280E091E07B
:1000F0000E9450020E94FD0080EA90E060E041E62C
:100100000E949E01882309F43FC084ED90E301978B
:10011000F1F700D000D080E791E0ADB7BEB71296FE
:100120009C938E93119781E690E014969C938E9306
:1001300013970E943E020F900F900F900F9080EA4D
:1001400090E060E041EA9E012F5F3F4F0E94C301B3
:100150008823B1F000D000D0EDB7FEB7319681E82A
:1001600091E0ADB7BEB712969C938E93119789819B
:10017000828313820E943E020F900F900F900F9087
:1001800081E991E00E945002FFCF1F93182F8A301F
:1001900019F48DE00E94C5005D9BFECF1CB980E084
:1001A00090E01F9108955D9BFECF8CB908955F9BF1
:1001B00007C08BB19CB18C7119F4292F30E002C0BB
:1001C0002FEF3FEFC90108955F9BFECF8BB19CB12C
:1001D0008C71D1F7892F08951BB888E98AB986E018
:1001E00080939500109290008FE289B98CEA91E09B
:1001F0009093BD018093BC0108958FE080937000BF
:10020000E1E7F0E080818C7F8083089584EA809329
:1002100074008091740087FFFCCF8091710090E0A2
:10022000887F883009F491E0892F089584EA8093CB
:1002300074008091740087FFFCCF8091710090E082
:10024000887F803109F491E0892F089580937300AD
:1002500084E8809374008091740087FFFCCF8091C4
:10026000710090E0887F883109F491E0892F08952A
:10027000CF93DF93EC018070907F8050904F29F4F2
:1002800080E00E942601882329F08C2F0E942601FD
:10029000811181E0DF91CF9108958093730084E80C
:1002A000809374008091740087FFFCCF809171006F
:1002B00090E0887F803409F491E0892F08950E94AE
:1002C0002601811181E008958093730084E8809372
:1002D00074008091740087FFFCCF8091710090E0E2
:1002E000887F883209F491E0892F0895FC0184E821
:1002F000809374008091740087FFFCCF809171001F
:10030000887F883511F080E00895809173008083A4
:1003100081E00895FC0184EC809374008091740066
:1003200087FFFCCF80917100887F803511F080E0DD
:10033000089580917300808381E008950F931F9347
:10034000CF93DF93EC01162F042F0E940601882320
:10035000A1F0CE010E943801882379F0812F0E94FC
:100360006401882351F0802F0E946401882329F0C2
:1003700084E98093740081E001C080E0DF91CF9137
:100380001F910F910895EF92FF920F931F93CF93B8
:10039000DF93EC01F62EE42E89010E9406018823EA
:1003A000E9F0CE010E9438018823C1F08F2D0E9410
:1003B0006401882399F00E941601882379F08E2D1C
:1003C0000E944D01882351F0C8010E9476018823C4
:1003D00029F084E98093740081E001C080E0DF911E
:1003E000CF911F910F91FF90EF900895CF92DF92E0
:1003F000FF920F931F93CF93DF93EC01162FF42EF0
:1004000069010E940601882381F1CE010E94380112
:10041000882359F1812F0E946401882331F10E94C1
:100420001601882311F18F2D0E944D018823E9F0D8
:10043000FF2410E00150104006C0C9010E948A014B
:10044000882399F0F3948F2D90E09601280F391F9F
:100450008017910794F3C9010E947601882329F03F
:1004600084E98093740081E001C080E0DF91CF9146
:100470001F910F91FF90DF90CF900895DF93CF935E
:10048000CDB7DEB7FE013596619171918091BC01C7
:100490009091BD01AF010E948502CF91DF91089537
:1004A0000F931F93CF93DF938C01E091BC01F091E8
:1004B000BD01838181FF21C0C0E0D0E00DC0E0918B
:1004C000BC01F091BD0120853185BF01F90109957D
:1004D000892B11F0CFEFDFEFF80181918F01882395
:1004E00071F7E091BC01F091BD01208531858AE072
:1004F000BF01F9010995892B11F0CFEFDFEFCE0194
:10050000DF91CF911F910F9108952F923F924F92BB
:100510005F926F927F928F929F92AF92BF92CF9293
:10052000DF92EF92FF920F931F93DF93CF93CDB79C
:10053000DEB72B970FB6F894DEBF0FBECDBF3C01E0
:100540002B015A01FC0117821682838181FD03C0B1
:100550006FEF7FEFC6C19AE0892E1E010894211C1F
:10056000311CF3012381F20123FD859123FF819149
:100570002F01882309F4B2C1853239F423FD859116
:1005800023FF81912F01853229F490E0B3010E946D
:10059000A104E7CF982FFF24EE249924FFE1FF1553
:1005A000D0F09B3269F09C3228F4903259F09332AB
:1005B00091F40EC09D3249F0903369F441E024C0BB
:1005C00052E0F52A84E0F82A28C098E0F92A25C0EC
:1005D000E0E1FE2A22C0F7FC29C0892F80538A302F
:1005E00070F4F6FE05C0989C902C1124980E15C04E
:1005F000E89CE02C1124E80EF0E2FF2A0EC09E32A7
:1006000029F4F6FC6BC140E4F42A07C09C3619F4C7
:1006100050E8F52A02C0983649F4F20123FD95917D
:1006200023FF91912F01992309F0B8CF892F855489
:10063000833018F08052833038F444E050E0A40E48
:10064000B51E5FE359830FC0933631F0933779F0CD
:10065000933509F056C020C0F5018081898342E0BE
:1006600050E0A40EB51E610101E010E012C0F501DA
:10067000C080D180F6FC03C06FEF7FEF02C0692D10
:1006800070E042E050E0A40EB51EC6010E94960440
:100690008C015FE7F52214C0F501C080D180F6FC23
:1006A00003C06FEF7FEF02C0692D70E042E050E0C1
:1006B000A40EB51EC6010E948B048C0150E8F52AD9
:1006C000F3FE07C01AC080E290E0B3010E94A104CB
:1006D000EA948E2D90E008171907A8F30EC0F601D2
:1006E000F7FC8591F7FE81916F0190E0B3010E94C4
:1006F000A104E110EA94015010400115110579F7A9
:10070000EAC0943611F0993669F5F7FE08C0F50194
:10071000208131814281538184E090E00AC0F5015B
:10072000808191819C01442737FD4095542F82E0C0
:1007300090E0A80EB91E9FE6F92257FF09C0509518
:100740004095309521953F4F4F4F5F4FE0E8FE2A8F
:10075000CA01B901A1012AE030E00E94CD04D82EDF
:10076000D21840C0953729F41F2D1F7E2AE030E0B3
:100770001DC01F2D197F9F3661F0903720F49835EA
:1007800009F0ACC00FC0903739F0983709F0A6C017
:1007900004C028E030E00AC0106114FD146020E1BC
:1007A00030E004C014FD166020E132E017FF08C0FD
:1007B000F501608171818281938144E050E008C03D
:1007C000F50180819181BC0180E090E042E050E041
:1007D000A40EB51EA1010E94CD04D82ED2188FE719
:1007E000F82EF122F6FE0BC05EEFF522D91438F494
:1007F000F4FE07C0F2FC05C08FEEF82202C01D2DEA
:1008000001C0192DF4FE0DC0FE01ED0DF11D80811A
:10081000803319F499EEF92208C01F5FF2FE05C07B
:1008200003C08F2D867809F01F5F0F2DF3FC14C0D5
:10083000F0FE0FC01E1510F09D2C0BC09D2C9E0CC1
:10084000911A1E2D06C080E290E0B3010E94A1041F
:100850001F5F1E15C0F304C01E1510F4E11A01C07D
:10086000EE2404FF0FC080E390E0B3010E94A104D6
:1008700002FF1DC001FD03C088E790E00EC088E5BF
:1008800090E00BC0802F867891F001FF02C08BE2D0
:1008900001C080E2F7FC8DE290E0B3010E94A10468
:1008A00006C080E390E0B3010E94A1049A94D91499
:1008B000C0F3DA94F101ED0DF11D808190E0B301F8
:1008C0000E94A104DD20A9F706C080E290E0B301F8
:1008D0000E94A104EA94EE20C1F743CEF3016681A1
:1008E0007781CB012B960FB6F894DEBF0FBECDBF3C
:1008F000CF91DF911F910F91FF90EF90DF90CF90FC
:10090000BF90AF909F908F907F906F905F904F902F
:100910003F902F900895FC010590615070400110A8
:10092000D8F7809590958E0F9F1F0895FC01615018
:10093000704001900110D8F7809590958E0F9F1F01
:1009400008950F931F93CF93DF938C01EB018B815D
:1009500081FF1BC082FF0DC02E813F818C819D8154
:100960002817390764F4E881F9810193F983E88352
:1009700006C0E885F985802F0995892B31F48E8191
:100980009F8101969F838E8302C00FEF1FEFC801E6
:10099000DF91CF911F910F910895FA01AA27283076
:1009A00051F1203181F1E8946F936E7F6E5F7F4F3C
:1009B0008F4F9F4FAF4FB1E03ED0B4E03CD0670FB8
:1009C000781F891F9A1FA11D680F791F8A1F911D0B
:1009D000A11D6A0F711D811D911DA11D20D009F45B
:1009E00068943F912AE0269F11243019305D31939D
:1009F000DEF6CF010895462F4770405D4193B3E086
:100A00000FD0C9F7F6CF462F4F70405D4A3318F02C
:100A1000495D31FD4052419302D0A9F7EACFB4E0DD
:100A2000A6959795879577956795BA95C9F7009795
:100A30006105710508959B01AC010A2E0694579536
:100A4000479537952795BA95C9F7620F731F841F8D
:0A0A5000951FA01D0895F894FFCF34
:100A5A002A2D2D2D2D2D2D2D2D2D2D2D2D2D2D2DBF
:100A6A002D2D2D2D2D2D2D2D2D2D2D2D2D2D2D2DAC
:100A7A002D2D2D2D2D2D2D2D2D2D2D2D2D2D2D2D9C
:100A8A002D2D2D2D202A0D002A2D2D2D2D2D2D2DEC
:100A9A002D2D2D2D2D2D2D2D2D2D2D2D4154323435
:100AAA00435858206578706572696D656E742D2D8E
:100ABA002D2D2D2D2D2D2D2D2D2D2D2D202A0D00B9
:100ACA00577269746520646174613A2025630D0A5E
:100ADA00005265616420646174613A2025630D0ADD
:100AEA0000454550524F4D20323443303220526532
:100AFA0061642054657374204F4B0D00000000029E
:0A0B0A0000000000C500000000001C
:00000001FF
