:100000000C9446000C9463000C9463000C94630001
:100010000C9463000C9463000C9463000C946300D4
:100020000C9463000C9463000C9463000C946300C4
:100030000C9463000C9463000C9463000C946300B4
:100040000C9463000C9463000C9463000C946300A4
:100050000C9463000C9463000C9463000C94630094
:100060000C9463000C9463000C9463000C94630084
:100070000C9463000C9463000C9463000C94630074
:100080000C9463000C9463000C94630011241FBE55
:10009000CFEFD0E1DEBFCDBF12E0A0E0B1E0ECECED
:1000A000F4E102C005900D92AC39B107D9F712E026
:1000B000ACE9B2E001C01D92A23AB107E1F70E949B
:1000C0005E010C94640A0C9400001F93182F8A3070
:1000D00019F48DE00E9465005D9BFECF1CB980E0A5
:1000E00090E01F9108955D9BFECF8CB908955F9BB2
:1000F00007C08BB19CB18C7119F4292F30E002C07C
:100100002FEF3FEFC90108955F9BFECF8BB19CB1EC
:100110008C71D1F7892F08951BB888E98AB986E0D8
:1001200080939500109290008FE289B980E091E071
:1001300090939F0280939E02089580916400846052
:1001400080936400809165008B7F8093650086E6D4
:1001500095E00197F1F780916500846080936500D8
:10016000809164008B7F809364008091630082FDA6
:10017000FCCF8091630082FFFCCF8091640084609B
:1001800080936400089590E020E05CE044E233E96D
:1001900096958091640084608093640080916500EE
:1001A0008B7F80936500852F8A95F1F7809165009C
:1001B000846080936500842F8A95F1F780916400B4
:1001C0008B7F809364008091630082FF02C09068FF
:1001D00004C08091630082FFFCCF832F8A95F1F7E2
:1001E000809165008460809365002F5F283081F6E0
:1001F000892F0895282F8091640084608093640083
:1002000090E05DED3CE040ED20FF0FC08091650087
:100210008B7F80936500832F8A95F1F7809165002D
:10022000846080936500842F0EC0809165008B7F71
:1002300080936500852F8A95F1F780916500846031
:1002400080936500832F8A95F1F79F5F983011F0B6
:100250002695DACF08950E949D008CEC0E94FA004A
:1002600084E40E94FA0008950F931F930E942B01CB
:100270000E949D008CEC0E94FA008EEB0E94FA0016
:100280000E94C300082F0E94C300382F20E010E016
:10029000202B312B442737FD4095542FCA01B9013B
:1002A0000E94AB0420E030E048EC50E40E9481035F
:1002B0000E94AB01CB011F910F910895EF92FF9225
:1002C0000F931F93CF93DF930E948C008EE091E0F9
:1002D0000E94B20786E491E00E94B2078EE091E0AE
:1002E0000E94B2078EE7E82E81E0F82EC8EBD0E03E
:1002F0000E9434018C010E9434019C0100D000D086
:1003000000D0EDB7FEB73196ADB7BEB71296FC92EE
:10031000EE921197C80164E670E00E945207738361
:100320006283C90164E670E00E945207958384836A
:100330000E949D0780E197E22DB73EB72A5F3F4FAD
:100340000FB6F8943EBF0FBE2DBFFE013197F1F7F7
:100350000197D9F7CDCFEF92FF920F931F937B01B7
:100360008C0120E030E040E05FE40E947B048823C1
:100370008CF0C801B70120E030E040E05FE40E946B
:1003800023030E9409059B01AC01205030404040EE
:10039000504806C0C801B7010E9409059B01AC0185
:1003A000B901CA011F910F91FF90EF900895A0E04D
:1003B000B0E0EDEDF1E00C946607DC012B01FA01F1
:1003C0009C91923008F439C1EB018881823008F4A5
:1003D00033C1943069F4843009F02FC111969C9197
:1003E00011978981981709F428C1A4E9B1E025C1C2
:1003F000843009F421C18230A9F4923009F01DC182
:100400009A01AD0188E0EA010990AE01E901099283
:100410009E018150C1F7E201898111969C91892347
:10042000818308C1923009F407C112962D903C9047
:100430001397EB018A819B811496AD90BD90CD906E
:10044000DC901797EC80FD800E811F819101281BA5
:10045000390BB90137FF04C066277727621B730B7E
:10046000603271050CF061C0121613066CF537018D
:100470004801062E04C096948794779467940A9452
:10048000D2F721E030E040E050E004C0220F331FFB
:10049000441F551F6A95D2F72150304040405040CC
:1004A0002E213F21402351232115310541055105BE
:1004B00021F021E030E040E050E079018A01E628B7
:1004C000F728082919293CC0232BD1F1260E371E05
:1004D00035014601062E04C096948794779467945C
:1004E0000A94D2F721E030E040E050E004C0220F4F
:1004F000331F441F551F6A95D2F7215030404040AA
:1005000050402A213B214C215D2121153105410517
:10051000510521F021E030E040E050E059016A014E
:10052000A628B728C828D9280BC0821593052CF017
:100530001C01AA24BB24650103C0EE24FF2487010B
:1005400011969C91D20111968C91981709F445C08F
:10055000992339F0A80197012A193B094C095D0933
:1005600006C0A60195012E193F09400B510B57FDFE
:1005700008C01182338222822483358346835783C5
:100580001DC081E081833382228288279927DC0184
:10059000821B930BA40BB50B84839583A683B7832F
:1005A0000DC0220F331F441F551F248335834683FC
:1005B000578382819381019793838283248135813C
:1005C00046815781DA01C9010197A109B1098F5FFD
:1005D0009F4FAF4FBF4328F30BC0918333822282DA
:1005E000EA0CFB1C0C1D1D1DE482F582068317839B
:1005F00083E08083248135814681578157FF1AC06B
:10060000C901AA2797FDA095BA2F81709070A0709C
:10061000B0705695479537952795822B932BA42B31
:10062000B52B84839583A683B783828193810196BA
:1006300093838283DF0101C0D201CD01CDB7DEB744
:10064000E2E10C948207A0E2B0E0E9E2F3E00C946E
:10065000720769837A838B839C832D833E834F83C8
:100660005887E9E0EE2EF12CEC0EFD1ECE0101962E
:10067000B7010E9481068E010F5E1F4FCE010596C5
:10068000B8010E9481068A8991E089278A8BC70177
:10069000B801AE01475E5F4F0E94D7010E94AC05D2
:1006A000A096E6E00C948E07A0E2B0E0EAE5F3E065
:1006B0000C94720769837A838B839C832D833E839A
:1006C0004F835887F9E0EF2EF12CEC0EFD1ECE0182
:1006D0000196B7010E9481068E010F5E1F4FCE0169
:1006E0000596B8010E948106C701B801AE01475EB8
:1006F0005F4F0E94D7010E94AC05A096E6E00C94E3
:100700008E07A0E2B0E0E7E8F3E00C9466076983A7
:100710007A838B839C832D833E834F835887CE01BE
:100720000196BE01675F7F4F0E948106CE0105964C
:10073000BE016F5E7F4F0E9481069985923088F0DE
:1007400089898230C8F0943019F4823051F404C0A1
:10075000843029F4923081F484E991E0C6C092306B
:1007600049F420E09A858A89981321E02A87CE01EE
:100770000996BBC0823049F420E09A858A89981393
:1007800021E02A8BCE014196B0C02D843E844F8457
:1007900058886D887E888F88988CEE24FF24870186
:1007A000AA24BB24650140E050E060E070E0E0E096
:1007B000F0E0C10181709070892BE9F0E60CF71C24
:1007C000081D191D9A01AB012A0D3B1D4C1D5D1D15
:1007D00080E090E0A0E0B0E0E614F7040805190519
:1007E00020F481E090E0A0E0B0E0BA01A901480F58
:1007F000591F6A1F7B1FAA0CBB1CCC1CDD1C97FE5B
:1008000008C081E090E0A0E0B0E0A82AB92ACA2A96
:10081000DB2A3196E032F10549F0660C771C881C22
:10082000991C5694479437942794C3CFFA85EA8944
:100830002B893C898B859C85280F391F2E5F3F4F64
:1008400017C0CA0181709070892B61F016950795C9
:10085000F794E79480E090E0A0E0B0E8E82AF92A75
:100860000A2B1B2B76956795579547952F5F3F4F22
:1008700077FDE7CF0CC0440F551F661F771F17FD8C
:100880004160EE0CFF1C001F111F21503040403012
:1008900090E0590790E0690790E4790760F32B8FA7
:1008A0003C8FDB01CA018F779070A070B0708034EC
:1008B0009105A105B10561F447FD0AC0E114F104F9
:1008C0000105110529F0405C5F4F6F4F7F4F407865
:1008D0001A8EFE1711F081E08A8F4D8F5E8F6F8F19
:1008E00078A383E0898FCE0149960E94AC05A0963B
:1008F000E2E10C948207A8E1B0E0E1E8F4E00C94B6
:10090000720769837A838B839C832D833E834F8315
:10091000588789E0E82EF12CEC0EFD1ECE010196E1
:10092000B7010E9481068E010F5E1F4FCE01059612
:10093000B8010E9481068985823040F08989823021
:1009400028F0C701B8010E94F90601C08FEF689630
:10095000E6E00C948E07A8E0B0E0E1EBF4E00C9444
:100960006F079B01AC0183E08983DA01C901882705
:10097000B7FD83959927AA27BB27B82E21153105E6
:100980004105510519F482E089833AC08823A9F012
:10099000203080E0380780E0480780E8580729F4D5
:1009A00060E070E080E09FEC30C0EE24FF2487011F
:1009B000E21AF30A040B150B02C079018A018EE1D9
:1009C000C82ED12CDC82CB82ED82FE820F83188769
:1009D000C801B7010E945D0501971816190684F435
:1009E000082E04C0EE0CFF1C001F111F0A94D2F742
:1009F000ED82FE820F831887C81AD90ADC82CB8267
:100A0000BA82CE0101960E94AC052896E9E00C94CA
:100A10008B07ACE0B0E0EFE0F5E00C94760769837B
:100A20007A838B839C83CE010196BE016B5F7F4FDF
:100A30000E9481068D81823061F1823050F18430D4
:100A400021F48E81882351F12EC02F81388537FD06
:100A500020C06E812F3131051CF06623F9F023C0D0
:100A60008EE190E0821B930B29853A854B855C854E
:100A700004C056954795379527958A95D2F76623F2
:100A8000B1F050954095309521953F4F4F4F5F4FB6
:100A90000EC020E030E040E050E009C02FEF3FEF13
:100AA0004FEF5FE704C020E030E040E050E8B901DC
:100AB000CA012C96E2E00C949207EF92FF920F93FA
:100AC0001F937B018C0180E0E81680E0F80681E04E
:100AD000080780E0180788F48FEFE816F104010595
:100AE000110531F028F088E090E0A0E0B0E017C0F8
:100AF00080E090E0A0E0B0E012C080E0E81680E086
:100B0000F80680E0080781E0180728F088E190E007
:100B1000A0E0B0E004C080E190E0A0E0B0E020E21E
:100B200030E040E050E0281B390B4A0B5B0B04C05F
:100B300016950795F794E7948A95D2F7F701E4564E
:100B4000FE4F8081281B310941095109C9011F91BC
:100B50000F91FF90EF900895DF92EF92FF920F9325
:100B60001F93FC01E480F58006811781D18080818C
:100B7000823048F480E090E0A0E1B0E0E82AF92A71
:100B80000A2B1B2BA5C0843009F49FC0823021F4AE
:100B9000EE24FF24870105C0E114F10401051105CD
:100BA00019F4E0E0F0E096C0628173819FEF623853
:100BB00079070CF05BC022E83FEF261B370B2A3188
:100BC00031052CF020E030E040E050E02AC0B801D0
:100BD000A701022E04C076956795579547950A940C
:100BE000D2F781E090E0A0E0B0E004C0880F991F48
:100BF000AA1FBB1F2A95D2F70197A109B1098E211F
:100C00009F21A023B1230097A105B10521F081E028
:100C100090E0A0E0B0E09A01AB01282B392B4A2BE1
:100C20005B2BDA01C9018F779070A070B0708034AF
:100C30009105A105B10539F427FF09C0205C3F4F9C
:100C40004F4F5F4F04C0215C3F4F4F4F5F4FE0E07D
:100C5000F0E02030A0E03A07A0E04A07A0E45A07FD
:100C600010F0E1E0F0E079018A0127C060387105F9
:100C700064F5FB01E158FF4FD801C7018F779070F1
:100C8000A070B07080349105A105B10539F4E7FE7C
:100C90000DC080E490E0A0E0B0E004C08FE390E0FD
:100CA000A0E0B0E0E80EF91E0A1F1B1F17FF05C0E9
:100CB00016950795F794E794319687E01695079572
:100CC000F794E7948A95D1F705C0EE24FF248701B5
:100CD000EFEFF0E06E2F679566276795902F9F776F
:100CE000D794DD24D7948E2F8695492F462B582FE5
:100CF0005D29B701CA011F910F91FF90EF90DF901E
:100D00000895FC01DB01408151812281622F6F77C0
:100D100070E0221F2227221F9381892F880F822BA8
:100D2000282F30E0991F9927991F11969C931197AE
:100D300021153105A9F5411551056105710511F41C
:100D400082E037C082E89FEF13969C938E931297B0
:100D50009A01AB0167E0220F331F441F551F6A95AC
:100D6000D1F783E08C930DC0220F331F441F551F12
:100D700012968D919C911397019713969C938E9345
:100D80001297203080E0380780E0480780E4580759
:100D900058F314962D933D934D935C9317970895B4
:100DA0002F3F310579F4411551056105710519F49D
:100DB00084E08C93089564FF03C081E08C9312C09B
:100DC0001C9210C02F57304013963C932E931297CD
:100DD00083E08C9387E0440F551F661F771F8A9529
:100DE000D1F7706414964D935D936D937C93179730
:100DF00008951F93DC01FB019C91923008F447C0D9
:100E00008081823008F443C0943051F411961C91D3
:100E1000843099F58181682F70E0611B71093FC0B2
:100E2000843021F0923031F48230B9F1818188230D
:100E300089F12DC011961C9111978230F1F08181BA
:100E40001817D9F412962D913C91139782819381B2
:100E50008217930794F028173907BCF014968D91E8
:100E60009D910D90BC91A02D2481358146815781A3
:100E7000281739074A075B0718F4112341F00AC005
:100E800082179307A407B50740F4112319F061E016
:100E900070E005C06FEF7FEF02C060E070E0CB0153
:100EA0001F910895AA1BBB1B51E107C0AA1FBB1FBE
:100EB000A617B70710F0A61BB70B881F991F5A95E6
:100EC000A9F780959095BC01CD0108952F923F928E
:100ED0004F925F926F927F928F929F92AF92BF924A
:100EE000CF92DF92EF92FF920F931F93CF93DF93F6
:100EF000CDB7DEB7CA1BDB0B0FB6F894DEBF0FBE53
:100F0000CDBF09942A88398848885F846E847D849F
:100F10008C849B84AA84B984C884DF80EE80FD80A1
:100F20000C811B81AA81B981CE0FD11D0FB6F89417
:100F3000DEBF0FBECDBFED010895A0E0B0E0E3EA53
:100F4000F7E00C947607FE013596619171918091DE
:100F50009E0290919F02AF010E94E7072096E2E077
:100F60000C9492070F931F93CF93DF938C01E09122
:100F70009E02F0919F02838181FF21C0C0E0D0E0FA
:100F80000DC0E0919E02F0919F0220853185BF0146
:100F9000F9010995892B11F0CFEFDFEFF80181916D
:100FA0008F01882371F7E0919E02F0919F022085C6
:100FB00031858AE0BF01F9010995892B11F0CFEF46
:100FC000DFEFCE01DF91CF911F910F910895ABE03C
:100FD000B0E0EDEEF7E00C9466073C012B015A01FE
:100FE000FC0117821682838181FD03C06FEF7FEFC2
:100FF000C6C19AE0892E1E010894211C311CF30100
:101000002381F20123FD859123FF81912F01882304
:1010100009F4B2C1853239F423FD859123FF819112
:101020002F01853229F490E0B3010E94DA09E7CF5D
:10103000982FFF24EE249924FFE1FF15D0F09B3276
:1010400069F09C3228F4903259F0933291F40EC03A
:101050009D3249F0903369F441E024C052E0F52A12
:1010600084E0F82A28C098E0F92A25C0E0E1FE2AA9
:1010700022C0F7FC29C0892F80538A3070F4F6FE15
:1010800005C0989C902C1124980E15C0E89CE02C6B
:101090001124E80EF0E2FF2A0EC09E3229F4F6FC7D
:1010A0006BC140E4F42A07C09C3619F450E8F52AD5
:1010B00002C0983649F4F20123FD959123FF9191E6
:1010C0002F01992309F0B8CF892F8554833018F068
:1010D0008052833038F444E050E0A40EB51E5FE344
:1010E00059830FC0933631F0933779F0933509F077
:1010F00056C020C0F5018081898342E050E0A40EF3
:10110000B51E610101E010E012C0F501C080D18080
:10111000F6FC03C06FEF7FEF02C0692D70E042E084
:1011200050E0A40EB51EC6010E94CF098C015FE7F6
:10113000F52214C0F501C080D180F6FC03C06FEF2A
:101140007FEF02C0692D70E042E050E0A40EB51EB2
:10115000C6010E94C4098C0150E8F52AF3FE07C0BD
:101160001AC080E290E0B3010E94DA09EA948E2D61
:1011700090E008171907A8F30EC0F601F7FC859157
:10118000F7FE81916F0190E0B3010E94DA09E1104E
:10119000EA94015010400115110579F7EAC0943620
:1011A00011F0993669F5F7FE08C0F501208131810B
:1011B0004281538184E090E00AC0F50180819181F1
:1011C0009C01442737FD4095542F82E090E0A80E03
:1011D000B91E9FE6F92257FF09C0509540953095FA
:1011E00021953F4F4F4F5F4FE0E8FE2ACA01B901FA
:1011F000A1012AE030E00E94060AD82ED21840C091
:10120000953729F41F2D1F7E2AE030E01DC01F2DC9
:10121000197F9F3661F0903720F4983509F0ACC003
:101220000FC0903739F0983709F0A6C004C028E005
:1012300030E00AC0106114FD146020E130E004C009
:1012400014FD166020E132E017FF08C0F50160814F
:1012500071818281938144E050E008C0F501808172
:101260009181BC0180E090E042E050E0A40EB51E08
:10127000A1010E94060AD82ED2188FE7F82EF1227B
:10128000F6FE0BC05EEFF522D91438F4F4FE07C069
:10129000F2FC05C08FEEF82202C01D2D01C0192DF1
:1012A000F4FE0DC0FE01ED0DF11D8081803319F4B7
:1012B00099EEF92208C01F5FF2FE05C003C08F2D12
:1012C000867809F01F5F0F2DF3FC14C0F0FE0FC0ED
:1012D0001E1510F09D2C0BC09D2C9E0C911A1E2DDE
:1012E00006C080E290E0B3010E94DA091F5F1E157C
:1012F000C0F304C01E1510F4E11A01C0EE2404FF6F
:101300000FC080E390E0B3010E94DA0902FF1DC024
:1013100001FD03C088E790E00EC088E590E00BC0B7
:10132000802F867891F001FF02C08BE201C080E23D
:10133000F7FC8DE290E0B3010E94DA0906C080E379
:1013400090E0B3010E94DA099A94D914C0F3DA94B8
:10135000F101ED0DF11D808190E0B3010E94DA09E9
:10136000DD20A9F706C080E290E0B3010E94DA090F
:10137000EA94EE20C1F743CEF30166817781CB0179
:101380002B96E2E10C948207FC01059061507040BD
:101390000110D8F7809590958E0F9F1F0895FC013E
:1013A0006150704001900110D8F7809590958E0F94
:1013B0009F1F08950F931F93CF93DF938C01EB0131
:1013C0008B8181FF1BC082FF0DC02E813F818C81EC
:1013D0009D812817390764F4E881F9810193F98325
:1013E000E88306C0E885F985802F0995892B31F4BB
:1013F0008E819F8101969F838E8302C00FEF1FEF26
:10140000C801DF91CF911F910F910895FA01AA278A
:10141000283051F1203181F1E8946F936E7F6E5F37
:101420007F4F8F4F9F4FAF4FB1E03ED0B4E03CD0E5
:10143000670F781F891F9A1FA11D680F791F8A1FC8
:10144000911DA11D6A0F711D811D911DA11D20D02F
:1014500009F468943F912AE0269F11243019305DE9
:101460003193DEF6CF010895462F4770405D4193DA
:10147000B3E00FD0C9F7F6CF462F4F70405D4A3327
:1014800018F0495D31FD4052419302D0A9F7EACFEF
:10149000B4E0A6959795879577956795BA95C9F71E
:1014A00000976105710508959B01AC010A2E069411
:1014B0005795479537952795BA95C9F7620F731FCA
:0C14C000841F951FA01D0895F894FFCF15
:1014CC0000000002000000006500000000002A2D52
:1014DC002D2D2D2D2D2D2D2D2D2D2D2D2D2D2D2D30
:1014EC002D2D2D2D2D2D2D2D2D2D2D2D2D2D2D2D20
:1014FC002D2D2D2D2D2D2D2D2D2D2D2D2D2D2D2D10
:10150C002D2D202A0D002A2D2D2D2D2D2D2D2D2D5F
:10151C002D2D2D2D2D2D2D2D2D2D44533138423289
:10152C0030206578706572696D656E742D2D2D2D6A
:10153C002D2D2D2D2D2D2D2D2D2D202A0D005465CD
:10154C006D706572747572653A25642E2564A1E61A
:10155C000A0D200000000000000000000001020243
:10156C00030303030404040404040404050505052F
:10157C00050505050505050505050505060606060B
:10158C0006060606060606060606060606060606EF
:10159C0006060606060606060606060607070707DB
:1015AC0007070707070707070707070707070707BF
:1015BC0007070707070707070707070707070707AF
:1015CC00070707070707070707070707070707079F
:1015DC00070707070707070707070707080808088B
:1015EC00080808080808080808080808080808086F
:1015FC00080808080808080808080808080808085F
:10160C00080808080808080808080808080808084E
:10161C00080808080808080808080808080808083E
:10162C00080808080808080808080808080808082E
:10163C00080808080808080808080808080808081E
:10164C00080808080808080808080808080808080E
:0C165C0008080808080808080808080822
:00000001FF
