:100000000C9446000C9465000C9465000C946500FB
:100010000C9465000C9465000C9465000C946500CC
:100020000C9465000C9465000C9465000C946500BC
:100030000C9465000C9465000C9465000C946500AC
:100040000C9465000C9465000C9465000C9465009C
:100050000C9465000C9465000C9465000C9465008C
:100060000C9465000C9465000C9465000C9465007C
:100070000C9465000C9465000C9465000C9465006C
:100080000C9465000C9465000C94650011241FBE4F
:10009000CFEFD0E1DEBFCDBF12E0A0E0B1E0E6E6F9
:1000A000F5E200E00BBF02C007900D92AE31B10740
:1000B000D9F712E0AEE1B2E001C01D92A436B1075B
:1000C000E1F70E9467000C94B1120C940000DF93DA
:1000D000CF93CDB7DEB70E94680980E091E00E941F
:1000E000D60F88E391E00E94D60F80E091E00E9455
:1000F000D60F0E9428060E94B807FDCFDF93CF934A
:100100000F92CDB7DEB78983EFE2F0E0898180837B
:10011000EEE2F0E080818823DCF7EFE2F0E080811E
:100120000F90CF91DF910895DF93CF9300D00F927E
:10013000CDB7DEB78A836B83A2E3B0E0E2E3F0E001
:1001400080818F7B8C938A810E947E0089838B8142
:100150000E947E00A2E3B0E0E2E3F0E080818064F0
:100160008C9389810F900F900F90CF91DF9108951C
:10017000DF93CF9300D0CDB7DEB78A83A2E3B0E0A0
:10018000E2E3F0E080818F7B8C938A810E947E0085
:1001900080E00E947E008983A2E3B0E0E2E3F0E029
:1001A000808180648C9389810F900F90CF91DF9133
:1001B00008950F931F93DF93CF9300D000D000D00A
:1001C000CDB7DEB78B837D836C834E83A2E3B0E033
:1001D000E2E3F0E080818F7B8C938B810E947E0034
:1001E0008A83198210C08981282F30E08C819D81FB
:1001F0008C01020F131F80E00E947E00F8018083B3
:1002000089818F5F898399818E81981760F3A2E33A
:10021000B0E0E2E3F0E0808180648C938A812696EE
:100220000FB6F894DEBF0FBECDBFCF91DF911F9107
:100230000F910895DF93CF93CDB7DEB76E970FB6CA
:10024000F894DEBF0FBECDBF8B8F7D8F6C8F4E8F2E
:10025000A2E3B0E0E2E3F0E080818F7B8C938B8DB2
:100260000E947E008A8F80E090E0A0E2B1E48D8B56
:100270009E8BAF8BB88F6D897E898F89988D22E593
:1002800039E44DE150E40E945D0BDC01CB01898B28
:100290009A8BAB8BBC8B69897A898B899C8920E08E
:1002A00030E040E85FE30E94630D88231CF481E0A6
:1002B000888B91C069897A898B899C8920E030E09C
:1002C0004FE753E40E94030D18160CF07BC06D89B4
:1002D0007E898F89988D20E030E04AE754E40E94BF
:1002E000570CDC01CB018C879D87AE87BF876C855F
:1002F0007D858E859F8526E636E646EE54E40E948F
:100300005D0BDC01CB0188879987AA87BB8768854D
:1003100079858A859B8520E030E040E85FE30E9494
:10032000630D88232CF481E090E09F838E833FC08F
:10033000688579858A859B8520E03FEF4FE757E404
:100340000E94030D18164CF56C857D858E859F8562
:1003500020E030E040E251E40E945D0BDC01CB0183
:10036000BC01CD010E948709DC01CB019F838E83F4
:100370000FC088EB90E09D838C838C819D810197D9
:10038000F1F79D838C838E819F8101979F838E835C
:100390008E819F81009769F724C0688579858A8559
:1003A0009B850E948709DC01CB019F838E838E8110
:1003B0009F819B838A838A819B810197F1F79B832D
:1003C0008A830FC069897A898B899C890E948709F1
:1003D000DC01CB01888B8889898389818A95F1F733
:1003E0008983198E0EC0EC8DFD8D20818C8D9D8DA5
:1003F00001969D8F8C8F822F0E947E00898D8F5F4A
:10040000898F998D8E8D981770F3A2E3B0E0E2E3A7
:10041000F0E0808180648C938A8D6E960FB6F8949C
:10042000DEBF0FBECDBFCF91DF910895DF93CF9395
:10043000CDB7DEB76C970FB6F894DEBF0FBECDBF59
:100440009C8F8B8F198EA2E3B0E0E2E3F0E0808115
:100450008F778C9380E090E0A0E2B1E48D8B9E8B4F
:10046000AF8BB88F6D897E898F89988D22E539E4AD
:100470004DE150E40E945D0BDC01CB01898B9A8B2E
:10048000AB8BBC8B69897A898B899C8920E030E0B1
:1004900040E85FE30E94630D88231CF481E0888BB1
:1004A00091C069897A898B899C8920E030E04FE787
:1004B00053E40E94030D18160CF07BC06D897E89F1
:1004C0008F89988D20E030E04AE754E40E94570C71
:1004D000DC01CB018C879D87AE87BF876C857D85CE
:1004E0008E859F8526E636E646EE54E40E945D0B37
:1004F000DC01CB0188879987AA87BB8768857985C6
:100500008A859B8520E030E040E85FE30E94630D30
:1005100088232CF481E090E09F838E833FC0688520
:1005200079858A859B8520E03FEF4FE757E40E945D
:10053000030D18164CF56C857D858E859F8520E012
:1005400030E040E251E40E945D0BDC01CB01BC01D4
:10055000CD010E948709DC01CB019F838E830FC0F0
:1005600088EB90E09D838C838C819D810197F1F7CE
:100570009D838C838E819F8101979F838E838E8143
:100580009F81009769F724C0688579858A859B8556
:100590000E948709DC01CB019F838E838E819F811E
:1005A0009B838A838A819B810197F1F79B838A834E
:1005B0000FC069897A898B899C890E948709DC012F
:1005C000CB01888B8889898389818A95F1F7898312
:1005D00087E00E947E008A8F8A8D282F30E000D02D
:1005E00000D0EDB7FEB7319686E791E09183808326
:1005F000338322830E94C40F0F900F900F900F90AF
:100600008A8D882F90E080749070009749F02B8D30
:100610003C8D81E6B90140E20E94D90081E0898FDA
:1006200087E26A8D0E949400A2E3B0E0E2E3F0E08A
:10063000808180688C93898D6C960FB6F894DEBFAC
:100640000FBECDBFCF91DF910895DF93CF93CDB78C
:10065000DEB76A970FB6F894DEBF0FBECDBF9A8F94
:10066000898FA2E3B0E0E2E3F0E080818F778C93A2
:1006700021E731E08AE2B90145E00E941A01298DA3
:100680003A8D80EAB90140E20E941A0180E26EE0F0
:100690000E949400A2E3B0E0E2E3F0E08081806891
:1006A0008C9380E090E0A0E2B1E48D8B9E8BAF8BC9
:1006B000B88F6D897E898F89988D22E539E44DE167
:1006C00050E40E945D0BDC01CB01898B9A8BAB8BD4
:1006D000BC8B69897A898B899C8920E030E040E86D
:1006E0005FE30E94630D88231CF481E0888B91C036
:1006F00069897A898B899C8920E030E04FE753E44F
:100700000E94030D18160CF07BC06D897E898F89BD
:10071000988D20E030E04AE754E40E94570CDC0159
:10072000CB018C879D87AE87BF876C857D858E8545
:100730009F8526E636E646EE54E40E945D0BDC011A
:10074000CB0188879987AA87BB87688579858A8541
:100750009B8520E030E040E85FE30E94630D882342
:100760002CF481E090E09F838E833FC0688579857B
:100770008A859B8520E03FEF4FE757E40E94030DF9
:1007800018164CF56C857D858E859F8520E030E0C0
:1007900040E251E40E945D0BDC01CB01BC01CD01C4
:1007A0000E948709DC01CB019F838E830FC088EBF9
:1007B00090E09D838C838C819D810197F1F79D83CF
:1007C0008C838E819F8101979F838E838E819F81F1
:1007D000009769F724C0688579858A859B850E9482
:1007E0008709DC01CB019F838E838E819F819B8350
:1007F0008A838A819B810197F1F79B838A830FC04B
:1008000069897A898B899C890E948709DC01CB01DF
:10081000888B8889898389818A95F1F789836A968B
:100820000FB6F894DEBF0FBECDBFCF91DF91089514
:10083000DF93CF93CDB7DEB768970FB6F894DEBFDE
:100840000FBECDBFA2E3B0E0E2E3F0E080818F779E
:100850008C9321E731E08AE2B90145E00E941A0158
:1008600081E360E20E94940081E26FE30E949400C1
:1008700082E26FE30E94940085E268E20E949400A5
:1008800086E267E00E94940080E26FE00E9494009C
:10089000A2E3B0E0E2E3F0E0808180688C9380E046
:1008A00090E0A0E2B1E48D8B9E8BAF8BB88F6D8909
:1008B0007E898F89988D22E539E44DE150E40E94CC
:1008C0005D0BDC01CB01898B9A8BAB8BBC8B69896F
:1008D0007A898B899C8920E030E040E85FE30E94C0
:1008E000630D88231CF481E0888B91C069897A8923
:1008F0008B899C8920E030E04FE753E40E94030D90
:1009000018160CF07BC06D897E898F89988D20E048
:1009100030E04AE754E40E94570CDC01CB018C879D
:100920009D87AE87BF876C857D858E859F8526E6F2
:1009300036E646EE54E40E945D0BDC01CB0188876D
:100940009987AA87BB87688579858A859B8520E0FA
:1009500030E040E85FE30E94630D88232CF481E0DF
:1009600090E09F838E833FC0688579858A859B85CB
:1009700020E03FEF4FE757E40E94030D18164CF5B7
:100980006C857D858E859F8520E030E040E251E4D6
:100990000E945D0BDC01CB01BC01CD010E948709E7
:1009A000DC01CB019F838E830FC088EB90E09D8399
:1009B0008C838C819D810197F1F79D838C838E813F
:1009C0009F8101979F838E838E819F81009769F716
:1009D00024C0688579858A859B850E948709DC010A
:1009E000CB019F838E838E819F819B838A838A81A3
:1009F0009B810197F1F79B838A830FC069897A896C
:100A00008B899C890E948709DC01CB01888B8889AE
:100A1000898389818A95F1F7898368960FB6F8945E
:100A2000DEBF0FBECDBFCF91DF910895DF93CF938F
:100A3000CDB7DEB76A970FB6F894DEBF0FBECDBF55
:100A40009A8F898FA2E3B0E0E2E3F0E080818F77B4
:100A50008C9321E731E080E3B90145E00E941A015F
:100A600021E731E08AE2B90145E00E941A01298DAF
:100A70003A8D80EAB90140E20E941A0181E26FE3F7
:100A80000E94940082E26FE30E94940084E26AE094
:100A90000E94940085E268E20E94940086E267E08A
:100AA0000E94940081E360E20E94940080E26EE084
:100AB0000E949400A2E3B0E0E2E3F0E0808180686D
:100AC0008C9380E090E0A0E2B1E48D8B9E8BAF8BA5
:100AD000B88F6D897E898F89988D22E539E44DE143
:100AE00050E40E945D0BDC01CB01898B9A8BAB8BB0
:100AF000BC8B69897A898B899C8920E030E040E849
:100B00005FE30E94630D88231CF481E0888B91C011
:100B100069897A898B899C8920E030E04FE753E42A
:100B20000E94030D18160CF07BC06D897E898F8999
:100B3000988D20E030E04AE754E40E94570CDC0135
:100B4000CB018C879D87AE87BF876C857D858E8521
:100B50009F8526E636E646EE54E40E945D0BDC01F6
:100B6000CB0188879987AA87BB87688579858A851D
:100B70009B8520E030E040E85FE30E94630D88231E
:100B80002CF481E090E09F838E833FC06885798557
:100B90008A859B8520E03FEF4FE757E40E94030DD5
:100BA00018164CF56C857D858E859F8520E030E09C
:100BB00040E251E40E945D0BDC01CB01BC01CD01A0
:100BC0000E948709DC01CB019F838E830FC088EBD5
:100BD00090E09D838C838C819D810197F1F79D83AB
:100BE0008C838E819F8101979F838E838E819F81CD
:100BF000009769F724C0688579858A859B850E945E
:100C00008709DC01CB019F838E838E819F819B832B
:100C10008A838A819B810197F1F79B838A830FC026
:100C200069897A898B899C890E948709DC01CB01BB
:100C3000888B8889898389818A95F1F789836A9667
:100C40000FB6F894DEBF0FBECDBFCF91DF910895F0
:100C5000DF93CF93CDB7DEB7A7E3B0E0E7E3F0E0F3
:100C6000808187608C93A7E3B0E0E7E3F0E08081C8
:100C7000877E8C93A8E3B0E0E8E3F0E080818E61AA
:100C80008C93A8E3B0E0E8E3F0E080818E7F8C9362
:100C9000A1E3B0E0E1E3F0E08081806C8C93A2E31B
:100CA000B0E0E2E3F0E08081806C8C93EDE2F0E074
:100CB00080E58083EEE2F0E01082A2E3B0E0E2E3C0
:100CC000F0E0808180648C93A2E3B0E0E2E3F0E0A6
:100CD00080818F778C93CF91DF910895DF93CF93AD
:100CE000CDB7DEB780E26EE00E94940081E26FE350
:100CF0000E94940082E26FE30E94940085E268E221
:100D00000E94940086E267E00E949400CF91DF91F8
:100D10000895DF93CF93CDB7DEB769970FB6F894F8
:100D2000DEBF0FBECDBF198EA2E3B0E0E2E3F0E07C
:100D300080818F778C938EE392E00E94160580E08D
:100D400090E0A0E2B1E48D8B9E8BAF8BB88F6D8964
:100D50007E898F89988D22E539E44DE150E40E9427
:100D60005D0BDC01CB01898B9A8BAB8BBC8B6989CA
:100D70007A898B899C8920E030E040E85FE30E941B
:100D8000630D88231CF481E0888B91C069897A897E
:100D90008B899C8920E030E04FE753E40E94030DEB
:100DA00018160CF07BC06D897E898F89988D20E0A4
:100DB00030E04AE754E40E94570CDC01CB018C87F9
:100DC0009D87AE87BF876C857D858E859F8526E64E
:100DD00036E646EE54E40E945D0BDC01CB018887C9
:100DE0009987AA87BB87688579858A859B8520E056
:100DF00030E040E85FE30E94630D88232CF481E03B
:100E000090E09F838E833FC0688579858A859B8526
:100E100020E03FEF4FE757E40E94030D18164CF512
:100E20006C857D858E859F8520E030E040E251E431
:100E30000E945D0BDC01CB01BC01CD010E94870942
:100E4000DC01CB019F838E830FC088EB90E09D83F4
:100E50008C838C819D810197F1F79D838C838E819A
:100E60009F8101979F838E838E819F81009769F771
:100E700024C0688579858A859B850E948709DC0165
:100E8000CB019F838E838E819F819B838A838A81FE
:100E90009B810197F1F79B838A830FC069897A89C7
:100EA0008B899C890E948709DC01CB01888B88890A
:100EB000898389818A95F1F7898387E00E94B80048
:100EC000898F898D282F30E000D000D0EDB7FEB794
:100ED00031968EE891E091838083338322830E9450
:100EE000C40F0F900F900F900F90898D882F90E076
:100EF000807290700097E9F0898D282F30E000D043
:100F000000D0EDB7FEB731968DE991E091838083F3
:100F1000338322830E94C40F0F900F900F900F9085
:100F20008BEA91E00E94D60F87E260E20E94940073
:100F30000FC0898D882F90E080719070009741F0EC
:100F400085EB91E00E94D60F87E260E10E94940059
:100F5000A2E3B0E0E2E3F0E0808180688C936996E0
:100F60000FB6F894DEBF0FBECDBFCF91DF910895CD
:100F7000DF93CF93CDB7DEB769970FB6F894DEBF96
:100F80000FBECDBF81E0898F0E941804E6E3F0E038
:100F90008081882F90E0807190700097B9F7A2E36C
:100FA000B0E0E2E3F0E080818F778C9380E090E026
:100FB000A0E2B1E48D8B9E8BAF8BB88F6D897E895B
:100FC0008F89988D22E539E44DE150E40E945D0B54
:100FD000DC01CB01898B9A8BAB8BBC8B69897A89BD
:100FE0008B899C8920E030E040E85FE30E94630D3C
:100FF00088231CF481E0888B91C069897A898B8968
:101000009C8920E030E04FE753E40E94030D18165E
:101010000CF07BC06D897E898F89988D20E030E04F
:101020004AE754E40E94570CDC01CB018C879D8772
:10103000AE87BF876C857D858E859F8526E636E6E3
:1010400046EE54E40E945D0BDC01CB018887998752
:10105000AA87BB87688579858A859B8520E030E0F3
:1010600040E85FE30E94630D88232CF481E090E068
:101070009F838E833FC0688579858A859B8520E024
:101080003FEF4FE757E40E94030D18164CF56C85AF
:101090007D858E859F8520E030E040E251E40E940E
:1010A0005D0BDC01CB01BC01CD010E948709DC0195
:1010B000CB019F838E830FC088EB90E09D838C8350
:1010C0008C819D810197F1F79D838C838E819F8117
:1010D00001979F838E838E819F81009769F724C03B
:1010E000688579858A859B850E948709DC01CB010B
:1010F0009F838E838E819F819B838A838A819B813C
:101100000197F1F79B838A830FC069897A898B895C
:101110009C890E948709DC01CB01888B888989839F
:1011200089818A95F1F7898387E00E94B800898FC9
:10113000898D282F30E000D000D0EDB7FEB7319672
:1011400082EE91E091838083338322830E94C40FD7
:101150000F900F900F900F90898D882F90E08074E2
:101160009070009701F12EE132E081E6B90140E292
:101170000E94D90087E260E40E94940080911E02E0
:10118000282F30E000D000D0EDB7FEB7319682EFC7
:1011900091E091838083338322830E94C40F0F9058
:1011A0000F900F900F90A2E3B0E0E2E3F0E08081B7
:1011B00080688C9369960FB6F894DEBF0FBECDBFE2
:1011C000CF91DF910895DF93CF9300D00F92CDB7E9
:1011D000DEB789837B836A8389818A3031F42A81EF
:1011E0003B818DE0B9010E94E308EBE2F0E08081F1
:1011F000882F90E0807290700097B9F3ECE2F0E0F5
:101200008981808380E090E00F900F900F90CF91C4
:10121000DF910895DF93CF930F92CDB7DEB7898327
:10122000EBE2F0E08081882F90E080729070009770
:10123000B9F3ECE2F0E0898180830F90CF91DF91E8
:101240000895DF93CF9300D000D0CDB7DEB7EBE2A7
:10125000F0E0808188232CF02FEF3FEF3C832B833D
:1012600019C0EBE2F0E080818A83ECE2F0E080815B
:1012700089838A81882F90E08C719070009729F083
:101280008FEF9FEF9C838B8305C08981282F30E0EF
:101290003C832B838B819C810F900F900F900F903C
:1012A000CF91DF910895DF93CF9300D0CDB7DEB714
:1012B0000E9421099A83898389819A812FEF8F3F28
:1012C0009207B1F389810F900F90CF91DF9108952C
:1012D000DF93CF93CDB7DEB7EBE2F0E01082EAE226
:1012E000F0E088E98083E5E9F0E086E08083E0E9EA
:1012F000F0E01082E9E2F0E08FE2808388E092E0A3
:101300009093610280936002CF91DF910895EF92F4
:10131000FF920F931F937B018C0120E030E040E0AF
:101320005FE40E94330D88238CF0C801B70120E0F0
:1013300030E040E05FE40E94FF0A0E94930D9B01B1
:10134000AC01205030404040504806C0C801B701B1
:101350000E94930D9B01AC01B901CA011F910F912D
:10136000FF90EF900895A0E0B0E0E9EBF9E00C9475
:101370008D0FDC012B01FA019C91923008F439C1E8
:10138000EB018881823008F433C1943069F48430F1
:1013900009F02FC111969C9111978981981709F432
:1013A00028C1A6E1B2E025C1843009F421C1823010
:1013B000A9F4923009F01DC19A01AD0188E0EA015B
:1013C0000990AE01E90109929E018150C1F7E20145
:1013D000898111969C918923818308C1923009F4F7
:1013E00007C112962D903C901397EB018A819B8147
:1013F0001496AD90BD90CD90DC901797EC80FD8059
:101400000E811F819101281B390BB90137FF04C0E0
:1014100066277727621B730B603271050CF061C081
:10142000121613066CF537014801062E04C0969477
:101430008794779467940A94D2F721E030E040E0F3
:1014400050E004C0220F331F441F551F6A95D2F786
:1014500021503040404050402E213F214023512315
:10146000211531054105510521F021E030E040E032
:1014700050E079018A01E628F728082919293CC09B
:10148000232BD1F1260E371E35014601062E04C04E
:1014900096948794779467940A94D2F721E030E089
:1014A00040E050E004C0220F331F441F551F6A95CF
:1014B000D2F721503040404050402A213B214C215E
:1014C0005D21211531054105510521F021E030E074
:1014D00040E050E059016A01A628B728C828D92859
:1014E0000BC0821593052CF01C01AA24BB246501B6
:1014F00003C0EE24FF24870111969C91D20111961E
:101500008C91981709F445C0992339F0A8019701E7
:101510002A193B094C095D0906C0A60195012E193F
:101520003F09400B510B57FD08C0118233822282C4
:1015300024833583468357831DC081E081833382B2
:10154000228288279927DC01821B930BA40BB50B01
:1015500084839583A683B7830DC0220F331F441F56
:10156000551F248335834683578382819381019756
:10157000938382832481358146815781DA01C901B1
:101580000197A109B1098F5F9F4FAF4FBF4328F368
:101590000BC0918333822282EA0CFB1C0C1D1D1DA3
:1015A000E482F5820683178383E08083248135817A
:1015B0004681578157FF1AC0C901AA2797FDA095F8
:1015C000BA2F81709070A070B0705695479537957E
:1015D0002795822B932BA42BB52B84839583A683ED
:1015E000B78382819381019693838283DF0101C057
:1015F000D201CD01CDB7DEB7E2E10C94A90FA0E294
:10160000B0E0E5E0FBE00C94990F69837A838B836B
:101610009C832D833E834F835887E9E0EE2EF12C87
:10162000EC0EFD1ECE010196B7010E94BC0E8E018C
:101630000F5E1F4FCE010596B8010E94BC0E8A892D
:1016400091E089278A8BC701B801AE01475E5F4FE1
:101650000E94B3090E94E70DA096E6E00C94B50F36
:10166000A0E2B0E0E6E3FBE00C94990F69837A8393
:101670008B839C832D833E834F835887F9E0EF2E25
:10168000F12CEC0EFD1ECE010196B7010E94BC0E9E
:101690008E010F5E1F4FCE010596B8010E94BC0E51
:1016A000C701B801AE01475E5F4F0E94B3090E94B7
:1016B000E70DA096E6E00C94B50FA0E2B0E0E3E6FB
:1016C000FBE00C948D0F69837A838B839C832D833D
:1016D0003E834F835887CE010196BE01675F7F4FDF
:1016E0000E94BC0ECE010596BE016F5E7F4F0E9428
:1016F000BC0E9985923088F089898230C8F0943088
:1017000019F4823051F404C0843029F4923081F409
:1017100086E192E0C6C0923049F420E09A858A8939
:10172000981321E02A87CE010996BBC0823049F484
:1017300020E09A858A89981321E02A8BCE01419670
:10174000B0C02D843E844F8458886D887E888F88F1
:10175000988CEE24FF248701AA24BB24650140E075
:1017600050E060E070E0E0E0F0E0C1018170907076
:10177000892BE9F0E60CF71C081D191D9A01AB0135
:101780002A0D3B1D4C1D5D1D80E090E0A0E0B0E007
:10179000E614F7040805190520F481E090E0A0E0C4
:1017A000B0E0BA01A901480F591F6A1F7B1FAA0C9C
:1017B000BB1CCC1CDD1C97FE08C081E090E0A0E0C3
:1017C000B0E0A82AB92ACA2ADB2A3196E032F1050C
:1017D00049F0660C771C881C991C569447943794E2
:1017E0002794C3CFFA85EA892B893C898B859C8510
:1017F000280F391F2E5F3F4F17C0CA0181709070AC
:10180000892B61F016950795F794E79480E090E0B6
:10181000A0E0B0E8E82AF92A0A2B1B2B76956795F9
:10182000579547952F5F3F4F77FDE7CF0CC0440F8B
:10183000551F661F771F17FD4160EE0CFF1C001F30
:10184000111F21503040403090E0590790E0690767
:1018500090E4790760F32B8F3C8FDB01CA018F770F
:101860009070A070B07080349105A105B10561F44D
:1018700047FD0AC0E114F1040105110529F0405C9F
:101880005F4F6F4F7F4F40781A8EFE1711F081E047
:101890008A8F4D8F5E8F6F8F78A383E0898FCE0103
:1018A00049960E94E70DA096E2E10C94A90FA8E1E9
:1018B000B0E0EDE5FCE00C94950F69837A838B83AF
:1018C0009C832D833E834F835887B9E0EB2EF12C08
:1018D000EC0EFD1ECE010196B7010E94BC0E8E01DA
:1018E0000F5E1F4FCE010596B8010E94BC0E2985E0
:1018F000223008F47EC03989323010F4B8017CC03F
:101900008A859A8989278A87243011F0223031F418
:10191000231709F06EC066E172E06EC0343039F40E
:101920001D861E861F86188A1C861B8604C03230C0
:1019300021F484E08987B7015FC02B853C858B89C2
:101940009C89281B390B3C872B87ED84FE840F85EF
:101950001889AD88BE88CF88D88CEA14FB040C05A2
:101960001D0540F4EE0CFF1C001F111F21503040DC
:101970003C872B8720E030E040E050E080E090E0C2
:10198000A0E0B0E460E070E0EA14FB040C051D0583
:1019900040F0282B392B4A2B5B2BEA18FB080C094B
:1019A0001D09B695A79597958795EE0CFF1C001F0E
:1019B000111F6F5F7F4F6F31710531F7DA01C90178
:1019C0008F779070A070B07080349105A105B1053B
:1019D00061F427FD0AC0E114F1040105110529F0A5
:1019E000205C3F4F4F4F5F4F20782D873E874F87BA
:1019F000588BBE01675F7F4FCB010E94E70D689651
:101A0000EAE00C94B10FA8E1B0E0E9E0FDE00C944D
:101A1000990F69837A838B839C832D833E834F83C5
:101A2000588789E0E82EF12CEC0EFD1ECE010196C0
:101A3000B7010E94BC0E8E010F5E1F4FCE010596AE
:101A4000B8010E94BC0E8985823040F089898230BD
:101A500028F0C701B8010E94340F01C08FEF6896CB
:101A6000E6E00C94B50FA8E1B0E0E9E3FDE00C94EA
:101A7000990F69837A838B839C832D833E834F8365
:101A8000588789E0E82EF12CEC0EFD1ECE01019660
:101A9000B7010E94BC0E8E010F5E1F4FCE0105964E
:101AA000B8010E94BC0E8985823040F0898982305D
:101AB00028F0C701B8010E94340F01C08FEF68966B
:101AC000E6E00C94B50FA8E1B0E0E9E6FDE00C9487
:101AD000990F69837A838B839C832D833E834F8305
:101AE000588789E0E82EF12CEC0EFD1ECE01019600
:101AF000B7010E94BC0E8E010F5E1F4FCE010596EE
:101B0000B8010E94BC0E8985823040F089898230FC
:101B100028F0C701B8010E94340F01C081E0689627
:101B2000E6E00C94B50FACE0B0E0E9E9FDE00C9420
:101B30009D0F69837A838B839C83CE010196BE01BE
:101B40006B5F7F4F0E94BC0E8D81823061F18230CD
:101B500050F1843021F48E81882351F12EC02F81E1
:101B6000388537FD20C06E812F3131051CF066238A
:101B7000F9F023C08EE190E0821B930B29853A8512
:101B80004B855C8504C056954795379527958A9572
:101B9000D2F76623B1F050954095309521953F4F8F
:101BA0004F4F5F4F0EC020E030E040E050E009C0F2
:101BB0002FEF3FEF4FEF5FE704C020E030E040E061
:101BC00050E8B901CA012C96E2E00C94B90FDF92FB
:101BD000EF92FF920F931F93FC01E480F580068142
:101BE0001781D1808081823048F480E090E0A0E1CC
:101BF000B0E0E82AF92A0A2B1B2BA5C0843009F48F
:101C00009FC0823021F4EE24FF24870105C0E11437
:101C1000F1040105110519F4E0E0F0E096C06281DD
:101C200073819FEF623879070CF05BC022E83FEFC9
:101C3000261B370B2A3131052CF020E030E040E044
:101C400050E02AC0B801A701022E04C0769567951E
:101C5000579547950A94D2F781E090E0A0E0B0E074
:101C600004C0880F991FAA1FBB1F2A95D2F701979E
:101C7000A109B1098E219F21A023B1230097A105BD
:101C8000B10521F081E090E0A0E0B0E09A01AB0165
:101C9000282B392B4A2B5B2BDA01C9018F779070E7
:101CA000A070B07080349105A105B10539F427FF0B
:101CB00009C0205C3F4F4F4F5F4F04C0215C3F4F36
:101CC0004F4F5F4FE0E0F0E02030A0E03A07A0E0A7
:101CD0004A07A0E45A0710F0E1E0F0E079018A0138
:101CE00027C06038710564F5FB01E158FF4FD8014A
:101CF000C7018F779070A070B07080349105A105F6
:101D0000B10539F4E7FE0DC080E490E0A0E0B0E05A
:101D100004C08FE390E0A0E0B0E0E80EF91E0A1FD7
:101D20001B1F17FF05C016950795F794E79431968A
:101D300087E016950795F794E7948A95D1F705C043
:101D4000EE24FF248701EFEFF0E06E2F6795662702
:101D50006795902F9F77D794DD24D7948E2F869503
:101D6000492F462B582F5D29B701CA011F910F91AA
:101D7000FF90EF90DF900895FC01DB0140815181DD
:101D80002281622F6F7770E0221F2227221F93810A
:101D9000892F880F822B282F30E0991F9927991FB0
:101DA00011969C93119721153105A9F541155105FF
:101DB0006105710511F482E037C082E89FEF139648
:101DC0009C938E9312979A01AB0167E0220F331F09
:101DD000441F551F6A95D1F783E08C930DC0220FE5
:101DE000331F441F551F12968D919C911397019795
:101DF00013969C938E931297203080E0380780E0F2
:101E0000480780E4580758F314962D933D934D935B
:101E10005C93179708952F3F310579F441155105CB
:101E20006105710519F484E08C93089564FF03C083
:101E300081E08C9312C01C9210C02F573040139633
:101E40003C932E93129783E08C9387E0440F551FA9
:101E5000661F771F8A95D1F7706414964D935D9332
:101E60006D937C93179708951F93DC01FB019C9160
:101E7000923008F447C08081823008F443C0943027
:101E800051F411961C91843099F58181682F70E08E
:101E9000611B71093FC0843021F0923031F48230EF
:101EA000B9F18181882389F12DC011961C91119778
:101EB0008230F1F081811817D9F412962D913C915E
:101EC0001397828193818217930794F0281739071B
:101ED000BCF014968D919D910D90BC91A02D248104
:101EE000358146815781281739074A075B0718F45F
:101EF000112341F00AC082179307A407B50740F4E5
:101F0000112319F061E070E005C06FEF7FEF02C0B0
:101F100060E070E0CB011F9108952F923F924F92A5
:101F20005F926F927F928F929F92AF92BF92CF9269
:101F3000DF92EF92FF920F931F93CF93DF93CDB772
:101F4000DEB7CA1BDB0B0FB6F894DEBF0FBECDBFEA
:101F500009942A88398848885F846E847D848C84BB
:101F60009B84AA84B984C884DF80EE80FD800C81C4
:101F70001B81AA81B981CE0FD11D0FB6F894DEBFA7
:101F80000FBECDBFED010895DF93CF93CDB7DEB780
:101F9000FE0135966191719180916002909161028C
:101FA000AF010E940B10CF91DF9108950F931F9303
:101FB000CF93DF938C01E0916002F0916102838105
:101FC00081FF21C0C0E0D0E00DC0E0916002F0913F
:101FD000610220853185BF01F9010995892B11F036
:101FE000CFEFDFEFF80181918F01882371F7E09146
:101FF0006002F0916102208531858AE0BF01F9011C
:102000000995892B11F0CFEFDFEFCE01DF91CF9152
:102010001F910F9108952F923F924F925F926F926E
:102020007F928F929F92AF92BF92CF92DF92EF9268
:10203000FF920F931F93DF93CF93CDB7DEB72B970C
:102040000FB6F894DEBF0FBECDBF3C012B015A0185
:10205000FC0117821682838181FD03C06FEF7FEF41
:10206000C6C19AE0892E1E010894211C311CF3017F
:102070002381F20123FD859123FF81912F01882384
:1020800009F4B2C1853239F423FD859123FF819192
:102090002F01853229F490E0B3010E942712E7CF87
:1020A000982FFF24EE249924FFE1FF15D0F09B32F6
:1020B00069F09C3228F4903259F0933291F40EC0BA
:1020C0009D3249F0903369F441E024C052E0F52A92
:1020D00084E0F82A28C098E0F92A25C0E0E1FE2A29
:1020E00022C0F7FC29C0892F80538A3070F4F6FE95
:1020F00005C0989C902C1124980E15C0E89CE02CEB
:102100001124E80EF0E2FF2A0EC09E3229F4F6FCFC
:102110006BC140E4F42A07C09C3619F450E8F52A54
:1021200002C0983649F4F20123FD959123FF919165
:102130002F01992309F0B8CF892F8554833018F0E7
:102140008052833038F444E050E0A40EB51E5FE3C3
:1021500059830FC0933631F0933779F0933509F0F6
:1021600056C020C0F5018081898342E050E0A40E72
:10217000B51E610101E010E012C0F501C080D18000
:10218000F6FC03C06FEF7FEF02C0692D70E042E004
:1021900050E0A40EB51EC6010E941C128C015FE720
:1021A000F52214C0F501C080D180F6FC03C06FEFAA
:1021B0007FEF02C0692D70E042E050E0A40EB51E32
:1021C000C6010E9411128C0150E8F52AF3FE07C0E7
:1021D0001AC080E290E0B3010E942712EA948E2D8B
:1021E00090E008171907A8F30EC0F601F7FC8591D7
:1021F000F7FE81916F0190E0B3010E942712E11078
:10220000EA94015010400115110579F7EAC094369F
:1022100011F0993669F5F7FE08C0F501208131818A
:102220004281538184E090E00AC0F5018081918170
:102230009C01442737FD4095542F82E090E0A80E82
:10224000B91E9FE6F92257FF09C050954095309579
:1022500021953F4F4F4F5F4FE0E8FE2ACA01B90179
:10226000A1012AE030E00E945312D82ED21840C0BB
:10227000953729F41F2D1F7E2AE030E01DC01F2D49
:10228000197F9F3661F0903720F4983509F0ACC083
:102290000FC0903739F0983709F0A6C004C028E085
:1022A00030E00AC0106114FD146020E130E004C089
:1022B00014FD166020E132E017FF08C0F5016081CF
:1022C00071818281938144E050E008C0F5018081F2
:1022D0009181BC0180E090E042E050E0A40EB51E88
:1022E000A1010E945312D82ED2188FE7F82EF122A6
:1022F000F6FE0BC05EEFF522D91438F4F4FE07C0E9
:10230000F2FC05C08FEEF82202C01D2D01C0192D70
:10231000F4FE0DC0FE01ED0DF11D8081803319F436
:1023200099EEF92208C01F5FF2FE05C003C08F2D91
:10233000867809F01F5F0F2DF3FC14C0F0FE0FC06C
:102340001E1510F09D2C0BC09D2C9E0C911A1E2D5D
:1023500006C080E290E0B3010E9427121F5F1E15A5
:10236000C0F304C01E1510F4E11A01C0EE2404FFEE
:102370000FC080E390E0B3010E94271202FF1DC04E
:1023800001FD03C088E790E00EC088E590E00BC037
:10239000802F867891F001FF02C08BE201C080E2BD
:1023A000F7FC8DE290E0B3010E94271206C080E3A3
:1023B00090E0B3010E9427129A94D914C0F3DA94E2
:1023C000F101ED0DF11D808190E0B3010E94271213
:1023D000DD20A9F706C080E290E0B3010E94271239
:1023E000EA94EE20C1F743CEF30166817781CB01F9
:1023F0002B960FB6F894DEBF0FBECDBFCF91DF9105
:102400001F910F91FF90EF90DF90CF90BF90AF9012
:102410009F908F907F906F905F904F903F902F9004
:102420000895FC010590615070400110D8F7809527
:1024300090958E0F9F1F0895FC0161507040019090
:102440000110D8F7809590958E0F9F1F08950F93D8
:102450001F93CF93DF938C01EB018B8181FF1BC016
:1024600082FF0DC02E813F818C819D812817390705
:1024700064F4E881F9810193F983E88306C0E88573
:10248000F985802F0995892B31F48E819F810196E2
:102490009F838E8302C00FEF1FEFC801DF91CF91A2
:1024A0001F910F910895FA01AA27283051F1203188
:1024B00081F1E8946F936E7F6E5F7F4F8F4F9F4FD8
:1024C000AF4FB1E03ED0B4E03CD0670F781F891F1A
:1024D0009A1FA11D680F791F8A1F911DA11D6A0FE8
:1024E000711D811D911DA11D20D009F468943F919B
:1024F0002AE0269F11243019305D3193DEF6CF019A
:102500000895462F4770405D4193B3E00FD0C9F75F
:10251000F6CF462F4F70405D4A3318F0495D31FDCC
:102520004052419302D0A9F7EACFB4E0A69597951F
:10253000879577956795BA95C9F7009761057105F5
:1025400008959B01AC010A2E06945795479537953F
:102550002795BA95C9F7620F731F841F951FA01D99
:062560000895F894FFCF7E
:102566002A2D2D2D2D2D2D2D2D2D2D2D2D2D2D2D98
:102576002D2D2D2D2D2D2D2D2D2D2D2D2D2D2D2D85
:102586002D2D2D2D2D2D2D2D2D2D2D2D2D2D2D2D75
:102596002D2D2D2D202A0D002A2D2D2D2D2D2D2DC5
:1025A6002D2D2D2D2D2D2D2D2D2D2D2D4E524632F1
:1025B600344C3031206578706572696D656E742DA6
:1025C6002D2D2D2D2D2D2D2D2D2D2D2D2D202A0D65
:1025D60000B2B2B3B401535441545553BDD3CADC0F
:1025E600D7B4CCACA3BA30782532780D0A00535450
:1025F600415455533D30782532780D0A00535441E5
:102606005455533D307825780D0A00585858585877
:102616005821210D0053656E6420746F2061636834
:1026260069657665206D6178696D756D206E756D6D
:10263600626572206F662073656E64696E6721211C
:102646000D005354415455533DA3BA307825780DA7
:102656000A00526563656976696E67206461746114
:102666003A307825780D0A000000000200000000CC
:0E267600E3080000000000000000000000006B
:00000001FF
