:100000000C9446000C9465000C9465000C946500FB
:100010000C9465000C9465000C9465000C946500CC
:100020000C9465000C9465000C9465000C946500BC
:100030000C9465000C9465000C9465000C946500AC
:100040000C9465000C9465000C9465000C9465009C
:100050000C9465000C9465000C9465000C9465008C
:100060000C9465000C9465000C9465000C9465007C
:100070000C9465000C9465000C9465000C9465006C
:100080000C9465000C9465000C94650011241FBE4F
:10009000CFEFD0E1DEBFCDBF13E0A0E0B1E0E0E6FE
:1000A000F3E000E00BBF02C007900D92AE35B10740
:1000B000D9F713E0AEE5B3E001C01D92A436B10755
:1000C000E1F70E9412010C94AE010C940000D0984C
:1000D00010BC80E487B9089580E886B9369A349BCD
:1000E000FECF94B185B1349A16B8382F20E0290F8D
:1000F000311DC9010895CF93DF93EC018734910539
:1001000020F480E091E00E947901CE018654904075
:100110008734910520F48FE191E00E947901CE01AE
:100120008C5890408734910520F48EE391E00E9432
:100130007901CE01825D9040C39720F48DE591E076
:100140000E947901CE0184509140CD9720F48CE734
:1001500091E00E947901CE0180549140CD9720F426
:100160008BE991E00E947901CE018C5791408997EB
:1001700020F48AEB91E00E947901CE01845A9140EB
:10018000C39720F489ED91E00E947901CE01865D4C
:100190009140CD9720F488EF91E00E947901CE0143
:1001A000825192408734910520F487E192E00E94C9
:1001B0007901CE0188559240C39720F486E392E0FE
:1001C0000E947901CE018A589240C39720F486E5B7
:1001D00092E00E947901CE018C5B9240CD9720F491
:1001E00086E792E00E947901CE01885F92408734D1
:1001F000910520F486E992E00E947901CE018E53A8
:100200009340CD9720F486EB92E00E947901CA5783
:10021000D340E39720F486ED92E00E947901DF91CC
:10022000CF9108951F938FEF8ABB85E58BBB0E940A
:100230006801D09810BC80E487B986EF92E00E94F4
:10024000790187E293E00E9479018BE393E00E94B9
:10025000790186EF92E00E94790110E003C00E94CC
:100260006C001F5F183CD8F30E947B008FE39DE079
:10027000A3E081509040A040E1F700C0000010E0F2
:10028000EECF1F93182F8A3019F48DE00E944101A0
:100290005D9BFECF1CB980E090E01F9108955D9BAF
:1002A000FECF8CB908955F9B07C08BB19CB18C7158
:1002B00019F4292F30E002C02FEF3FEFC901089554
:1002C0005F9BFECF8BB19CB18C71D1F7892F0895C4
:1002D0001BB888E98AB986E0809395001092900057
:1002E0008FE289B980E593E0909361038093600386
:1002F00008950F931F93CF93DF938C01E0916003D8
:10030000F0916103838181FF21C0C0E0D0E00DC086
:10031000E0916003F091610320853185BF01F9010F
:100320000995892B11F0CFEFDFEFF80181918F0153
:10033000882371F7E0916003F09161032085318596
:100340008AE0BF01F9010995892B11F0CFEFDFEFAA
:10035000CE01DF91CF911F910F910895F894FFCFB7
:10036000596F7520707265737320746865206275AB
:1003700074746F6E206973206B657930200D00599D
:100380006F75207072657373207468652062757470
:10039000746F6E206973206B657931200D00596F81
:1003A000752070726573732074686520627574744B
:1003B0006F6E206973206B657932200D00596F755F
:1003C0002070726573732074686520627574746F31
:1003D0006E206973206B657933200D00596F75208D
:1003E00070726573732074686520627574746F6EC3
:1003F000206973206B657934200D00596F7520706A
:10040000726573732074686520627574746F6E20F2
:100410006973206B657935200D00596F75207072F6
:100420006573732074686520627574746F6E2069DB
:1004300073206B657936200D00596F7520707265D9
:1004400073732074686520627574746F6E206973AD
:10045000206B657937200D00596F752070726573B8
:10046000732074686520627574746F6E20697320E0
:100470006B657938200D00596F7520707265737344
:100480002074686520627574746F6E206973206BC8
:10049000657939200D00596F75207072657373206E
:1004A00074686520627574746F6E206973206B6563
:1004B000793130200D00596F75207072657373208B
:1004C00074686520627574746F6E206973206B6543
:1004D000793131200D00596F75207072657373206A
:1004E00074686520627574746F6E206973206B6523
:1004F000793132200D00596F752070726573732049
:1005000074686520627574746F6E206973206B6502
:10051000793133200D00596F752070726573732027
:1005200074686520627574746F6E206973206B65E2
:10053000793134200D00596F752070726573732006
:1005400074686520627574746F6E206973206B65C2
:10055000793135200D002A2D2D2D2D2D2D2D2D2DD0
:100560002D2D2D2D2D2D2D2D2D2D2D2D2D2D2D2DBB
:100570002D2D2D2D2D2D2D2D2D2D2D2D2D2D2D2DAB
:100580002D2D2D2A200D007777772E7761766573D4
:10059000686172652E6E6574200D004144432054DD
:1005A0006573742070726F636564757265200D00E9
:0E05B0000000000200000000410100000000F9
:00000001FF
