:100000000C9446000C945D000C945D000C945D0013
:100010000C945D000C945D000C945D000C945D00EC
:100020000C945D000C945D000C945D000C945D00DC
:100030000C945D000C945D000C945D000C945D00CC
:100040000C945D000C945D000C945D000C945D00BC
:100050000C945D000C945D000C945D000C945D00AC
:100060000C945D000C945D000C945D000C945D009C
:100070000C945D000C945D000C945D000C945D008C
:100080000C945D000C945D000C945D0011241FBE67
:10009000CFEFD0E1DEBFCDBF11E0A0E0B1E0E8EEF0
:1000A000F0E000E00BBF02C007900D92A830B1074E
:1000B000D9F70E946A000C9472000C94000087EF3C
:1000C00087BB8EE58DB90895C2988FB9779BFECF17
:1000D000C29A089587EF87BB8EE58DB98DE00E94A7
:0800E0006400FCCFF894FFCF8F
:0800E800010204081020408011
:00000001FF
