:100000000C9446000C9465000C9465000C946500FB
:100010000C9465000C9465000C9465000C946500CC
:100020000C9465000C9465000C9465000C946500BC
:100030000C9465000C9465000C9465000C946500AC
:100040000C9465000C9465000C9465000C9465009C
:100050000C9465000C9465000C9465000C9465008C
:100060000C9465000C9465000C9465000C9465007C
:100070000C9465000C9465000C9465000C9465006C
:100080000C9465000C9465000C94650011241FBE4F
:10009000CFEFD0E1DEBFCDBF11E0A0E0B1E0ECE2F8
:1000A000F1E000E00BBF02C007900D92AA30B1074B
:1000B000D9F711E0AAE0B1E001C01D92AB30B10761
:1000C000E1F70E9467000C9494000C9400001F93C9
:1000D0008FEF84BBD69A10E00E947C001F5F14361D
:1000E000D9F782E390E00E947A0014BAD79A0E946E
:1000F0009100FDCF089508958FEF84BB80910A0190
:100100008F5F80930A018A3010F010920A01E0910B
:100110000A01F0E0E050FF4F808185BBDE9ADE9857
:0C0120000895DF9ADF980895F894FFCF4F
:0A012C0031323334353637383900EC
:00000001FF
