:100000000C9446000C945D000C945D000C945D0013
:100010000C945D000C945D000C945D000C945D00EC
:100020000C945D000C945D000C945D000C945D00DC
:100030000C945D000C945D000C945D000C945D00CC
:100040000C945D000C945D000C945D000C945D00BC
:100050000C945D000C945D000C945D000C945D00AC
:100060000C945D000C945D000C945D000C945D009C
:100070000C945D000C945D000C945D000C945D008C
:100080000C945D000C945D000C945D0011241FBE67
:10009000CFEFD0E1DEBFCDBF11E0A0E0B1E0EAE5F7
:1000A000F1E000E00BBF02C007900D92A030B10755
:1000B000D9F70E94A2000C94AB000C94000083B30B
:1000C00083BB83B38F3E41F1803F38F48F3B71F1A6
:1000D0008F3D39F18F37A9F52FC08B3F99F08C3FB9
:1000E00018F4873F71F513C08D3F39F08E3F49F505
:1000F00083B38E3FE9F381E01DC083B38D3FE9F305
:1001000082E018C083B38B3FE9F384E013C083B36C
:10011000873FE9F388E00EC083B38F3EE9F380E1C7
:1001200009C083B38F3DE9F380E204C083B38F3B02
:10013000E9F380E48BBB089583B38F37E9F380E85C
:100140008BBB08958FEF8ABB94B314BA95B385BB6C
:0A0150000E945F00FDCFF894FFCF7E
:00000001FF
