:100000000C9446000C9465000C9465000C946500FB
:100010000C9465000C9465000C9465000C946500CC
:100020000C9465000C9465000C9465000C946500BC
:100030000C9465000C9465000C9465000C946500AC
:100040000C9465000C9465000C9465000C9465009C
:100050000C9465000C9465000C9465000C9465008C
:100060000C9465000C9465000C9465000C9465007C
:100070000C9465000C9465000C9465000C9465006C
:100080000C9465000C9465000C94650011241FBE4F
:10009000CFEFD0E1DEBFCDBF11E0A0E0B1E0E6E9F7
:1000A000FBE000E00BBF02C007900D92AC39B10736
:1000B000D9F711E0ACE9B1E001C01D92A23AB10755
:1000C000E1F70E9435020C94C9050C9400008FE002
:1000D00080937000E1E7F0E080818C7F8083089559
:1000E00084EA809374008091740087FFFCCF809134
:1000F000710090E0887F883009F491E0892F08959D
:1001000084EA809374008091740087FFFCCF809113
:10011000710090E0887F803109F491E0892F089583
:100120008093730084E8809374008091740087FF4B
:10013000FCCF8091710090E0887F883109F491E0D4
:10014000892F0895CF93DF93EC018070907F8050CA
:10015000904F29F480E00E949000882329F08C2F92
:100160000E949000811181E0DF91CF9108958093EA
:10017000730084E8809374008091740087FFFCCF43
:100180008091710090E0887F803409F491E0892F9C
:1001900008950E949000811181E00895809373007A
:1001A00084E8809374008091740087FFFCCF809175
:1001B000710090E0887F883209F491E0892F0895DA
:1001C000FC0184E8809374008091740087FFFCCF69
:1001D00080917100887F883511F080E008958091CA
:1001E0007300808381E00895FC0184EC80937400A7
:1001F0008091740087FFFCCF80917100887F8035EB
:1002000011F080E0089580917300808381E008956B
:100210000F931F93CF93DF93EC01162F042F0E94AF
:1002200070008823A1F0CE010E94A200882379F0FB
:10023000812F0E94CE00882351F0802F0E94CE0093
:10024000882329F084E98093740081E001C080E074
:10025000DF91CF911F910F910895EF92FF920F932D
:100260001F93CF93DF93EC01F62EE42E89010E94B9
:1002700070008823E9F0CE010E94A2008823C1F01B
:100280008F2D0E94CE00882399F00E948000882341
:1002900079F08E2D0E94B700882351F0C8010E948A
:1002A000E000882329F084E98093740081E001C094
:1002B00080E0DF91CF911F910F91FF90EF90089513
:1002C000CF92DF92FF920F931F93CF93DF93EC01B6
:1002D000162FF42E69010E947000882381F1CE014F
:1002E0000E94A200882359F1812F0E94CE0088230A
:1002F00031F10E948000882311F18F2D0E94B700F8
:100300008823E9F0FF2410E00150104006C0C90125
:100310000E94F400882399F0F3948F2D90E09601C9
:10032000280F391F8017910794F3C9010E94E0003C
:10033000882329F084E98093740081E001C080E083
:10034000DF91CF911F910F91FF90DF90CF90089593
:10035000282F462F82EA90E0622F0E940801811127
:1003600081E008950F93582F9B01042F82EA90E0BB
:10037000652F43EA0E946001811181E00F91089589
:100380000F931F938C0182E0B80143E00E94B201F9
:10039000F80180818F77808381818F77818382814B
:1003A0008F7382832081822F82958F703AE0839FA2
:1003B000C00111242F70280F20832181822F829564
:1003C0008F70839FC00111242F70280F21832281F9
:1003D000822F82958F70839FC00111242F70280F68
:1003E00022831F910F910895EF92FF920F931F9315
:1003F000282F562F6AE00E94D002382F3295307F86
:10040000822F0E94D002292F852F0E94D002082F10
:100410000295007F852F0E94D002E92E842F0E9432
:10042000D002182F1295107F842F0E94D002F92E2F
:10043000320F84E0632F0E94A8010E0D83E0602F2D
:100440000E94A8011F0D82E0612F0E94A8011F9148
:100450000F91FF90EF90089580E060E00E94A80166
:1004600081E062E10E94A8010895CF92DF92EF92AD
:10047000FF920F931F93DF93CF9300D00F92CDB7CE
:10048000DEB78FEF8ABB1BBA0E94BF0280E091E00B
:100490000E94EE0288E391E00E94EE0280E091E08B
:1004A0000E94EE028FE080937000809171008C7F3B
:1004B000809371000E942C0280E060E040E00E9486
:1004C000F4016E010894C11CD11C80E7E82E81E084
:1004D000F82EC6010E94C001101739F199819BBB0B
:1004E0002DB73EB7285030400FB6F8943EBF0FBE30
:1004F0002DBFEDB7FEB73196ADB7BEB71296FC92E1
:10050000EE9211978B81828313828A818483158274
:10051000968317820E94DC022DB73EB7285F3F4FBB
:100520000FB6F8943EBF0FBE2DBF102F0981D1CF5B
:100530001F93182F8A3019F48DE00E9498025D9B5A
:10054000FECF1CB980E090E01F9108955D9BFECF27
:100550008CB908955F9B07C08BB19CB18C7119F465
:10056000292F30E002C02FEF3FEFC90108955F9BB4
:10057000FECF8BB19CB18C71D1F7892F08951BB838
:1005800088E98AB986E080939500109290008FE206
:1005900089B98EE891E090939F0180939E01089520
:1005A000991B79E004C0991F961708F0961B881FC5
:1005B0007A95C9F780950895DF93CF93CDB7DEB7CD
:1005C000FE0135966191719180919E0190919F01FC
:1005D000AF010E942303CF91DF9108950F931F93E2
:1005E000CF93DF938C01E0919E01F0919F01838175
:1005F00081FF21C0C0E0D0E00DC0E0919E01F091EC
:100600009F0120853185BF01F9010995892B11F0E2
:10061000CFEFDFEFF80181918F01882371F7E0912F
:100620009E01F0919F01208531858AE0BF01F9018B
:100630000995892B11F0CFEFDFEFCE01DF91CF913C
:100640001F910F9108952F923F924F925F926F9258
:100650007F928F929F92AF92BF92CF92DF92EF9252
:10066000FF920F931F93DF93CF93CDB7DEB72B97F6
:100670000FB6F894DEBF0FBECDBF3C012B015A016F
:10068000FC0117821682838181FD03C06FEF7FEF2B
:10069000C6C19AE0892E1E010894211C311CF30169
:1006A0002381F20123FD859123FF81912F0188236E
:1006B00009F4B2C1853239F423FD859123FF81917C
:1006C0002F01853229F490E0B3010E943F05E7CF66
:1006D000982FFF24EE249924FFE1FF15D0F09B32E0
:1006E00069F09C3228F4903259F0933291F40EC0A4
:1006F0009D3249F0903369F441E024C052E0F52A7C
:1007000084E0F82A28C098E0F92A25C0E0E1FE2A12
:1007100022C0F7FC29C0892F80538A3070F4F6FE7E
:1007200005C0989C902C1124980E15C0E89CE02CD4
:100730001124E80EF0E2FF2A0EC09E3229F4F6FCE6
:100740006BC140E4F42A07C09C3619F450E8F52A3E
:1007500002C0983649F4F20123FD959123FF91914F
:100760002F01992309F0B8CF892F8554833018F0D1
:100770008052833038F444E050E0A40EB51E5FE3AD
:1007800059830FC0933631F0933779F0933509F0E0
:1007900056C020C0F5018081898342E050E0A40E5C
:1007A000B51E610101E010E012C0F501C080D180EA
:1007B000F6FC03C06FEF7FEF02C0692D70E042E0EE
:1007C00050E0A40EB51EC6010E9434058C015FE7FF
:1007D000F52214C0F501C080D180F6FC03C06FEF94
:1007E0007FEF02C0692D70E042E050E0A40EB51E1C
:1007F000C6010E9429058C0150E8F52AF3FE07C0C6
:100800001AC080E290E0B3010E943F05EA948E2D69
:1008100090E008171907A8F30EC0F601F7FC8591C0
:10082000F7FE81916F0190E0B3010E943F05E11056
:10083000EA94015010400115110579F7EAC0943689
:1008400011F0993669F5F7FE08C0F5012081318174
:100850004281538184E090E00AC0F501808191815A
:100860009C01442737FD4095542F82E090E0A80E6C
:10087000B91E9FE6F92257FF09C050954095309563
:1008800021953F4F4F4F5F4FE0E8FE2ACA01B90163
:10089000A1012AE030E00E946B05D82ED21840C09A
:1008A000953729F41F2D1F7E2AE030E01DC01F2D33
:1008B000197F9F3661F0903720F4983509F0ACC06D
:1008C0000FC0903739F0983709F0A6C004C028E06F
:1008D00030E00AC0106114FD146020E130E004C073
:1008E00014FD166020E132E017FF08C0F5016081B9
:1008F00071818281938144E050E008C0F5018081DC
:100900009181BC0180E090E042E050E0A40EB51E71
:10091000A1010E946B05D82ED2188FE7F82EF12284
:10092000F6FE0BC05EEFF522D91438F4F4FE07C0D2
:10093000F2FC05C08FEEF82202C01D2D01C0192D5A
:10094000F4FE0DC0FE01ED0DF11D8081803319F420
:1009500099EEF92208C01F5FF2FE05C003C08F2D7B
:10096000867809F01F5F0F2DF3FC14C0F0FE0FC056
:100970001E1510F09D2C0BC09D2C9E0C911A1E2D47
:1009800006C080E290E0B3010E943F051F5F1E1584
:10099000C0F304C01E1510F4E11A01C0EE2404FFD8
:1009A0000FC080E390E0B3010E943F0502FF1DC02D
:1009B00001FD03C088E790E00EC088E590E00BC021
:1009C000802F867891F001FF02C08BE201C080E2A7
:1009D000F7FC8DE290E0B3010E943F0506C080E382
:1009E00090E0B3010E943F059A94D914C0F3DA94C1
:1009F000F101ED0DF11D808190E0B3010E943F05F2
:100A0000DD20A9F706C080E290E0B3010E943F0517
:100A1000EA94EE20C1F743CEF30166817781CB01E2
:100A20002B960FB6F894DEBF0FBECDBFCF91DF91EE
:100A30001F910F91FF90EF90DF90CF90BF90AF90FC
:100A40009F908F907F906F905F904F903F902F90EE
:100A50000895FC010590615070400110D8F7809511
:100A600090958E0F9F1F0895FC016150704001907A
:100A70000110D8F7809590958E0F9F1F08950F93C2
:100A80001F93CF93DF938C01EB018B8181FF1BC000
:100A900082FF0DC02E813F818C819D8128173907EF
:100AA00064F4E881F9810193F983E88306C0E8855D
:100AB000F985802F0995892B31F48E819F810196CC
:100AC0009F838E8302C00FEF1FEFC801DF91CF918C
:100AD0001F910F910895FA01AA27283051F1203172
:100AE00081F1E8946F936E7F6E5F7F4F8F4F9F4FC2
:100AF000AF4FB1E03ED0B4E03CD0670F781F891F04
:100B00009A1FA11D680F791F8A1F911DA11D6A0FD1
:100B1000711D811D911DA11D20D009F468943F9184
:100B20002AE0269F11243019305D3193DEF6CF0183
:100B30000895462F4770405D4193B3E00FD0C9F749
:100B4000F6CF462F4F70405D4A3318F0495D31FDB6
:100B50004052419302D0A9F7EACFB4E0A695979509
:100B6000879577956795BA95C9F7009761057105DF
:100B700008959B01AC010A2E069457954795379529
:100B80002795BA95C9F7620F731F841F951FA01D83
:060B90000895F894FFCF68
:100B96002A2D2D2D2D2D2D2D2D2D2D2D2D2D2D2D82
:100BA6002D2D2D2D2D2D2D2D2D2D2D2D2D2D2D2D6F
:100BB6002D2D2D2D2D2D2D2D2D2D2D2D2D2D2D2D5F
:100BC6002D2D2D2D202A0D002A2D2D2D2D2D2D2DAF
:100BD6002D2D2D2D2D2D2D2D2D2D2D2D41543234F8
:100BE600435858206578706572696D656E742D2D51
:100BF6002D2D2D2D2D2D2D2D2D2D2D2D202A0D007C
:100C06005265616C2074696D6520636C6F636B203F
:100C16002025643A25643A2564200D200A00000048
:0C0C260000020000000098020000000026
:00000001FF
