:100000000C9446000C945D000C945D000C945D0013
:100010000C945D000C945D000C945D000C945D00EC
:100020000C945D000C945D000C945D000C945D00DC
:100030000C945D000C945D000C945D000C945D00CC
:100040000C945D000C945D000C945D000C945D00BC
:100050000C945D000C945D000C945D000C945D00AC
:100060000C945D000C945D000C945D000C945D009C
:100070000C945D000C945D000C945D000C945D008C
:100080000C945D000C945D000C945D0011241FBE67
:10009000CFEFD0E1DEBFCDBF11E0A0E0B1E0EAE0FC
:1000A000F1E000E00BBF02C007900D92A030B10755
:1000B000D9F70E9462000C9483000C9400008FEF2B
:1000C0008ABB08958FEF8ABB85E083BF20E030E0D4
:1000D00040E050E098E306B600FEFDCF86B78160B1
:1000E00086BF92BF2F5F3F4F4F4F5F4F2233310587
:1000F0004105510581F78BB380958BBB20E030E043
:0A01000040E050E0E8CFF894FFCF94
:00000001FF
