:100000000C9446000C945D000C945D000C945D0013
:100010000C945D000C945D000C945D000C945D00EC
:100020000C945D000C945D000C945D000C945D00DC
:100030000C945D000C945D000C945D000C945D00CC
:100040000C945D000C945D000C945D000C945D00BC
:100050000C945D000C945D000C945D000C945D00AC
:100060000C945D000C945D000C945D000C945D009C
:100070000C945D000C945D000C945D000C945D008C
:100080000C945D000C945D000C945D0011241FBE67
:10009000CFEFD0E1DEBFCDBF11E0A0E0B1E0E0E204
:1000A000F1E000E00BBF02C007900D92A030B10755
:1000B000D9F70E945F000C948E000C9400009FEF13
:1000C00092B98AE080938A0090938B001092890005
:1000D000109288001092870010928600109285007E
:1000E00010928400109283001092820020E038E485
:1000F000C9010197F1F780918400909185000196E4
:100100009093850080938400809182009091830079
:1001100001969093830080938200EACFF894FFCFFA
:00000001FF
