:100000000C9446000C945D000C945D000C945D0013
:100010000C945D000C945D000C945D000C945D00EC
:100020000C946F000C945D000C945D000C945D00CA
:100030000C945D000C945D000C945D000C945D00CC
:100040000C945D000C945D000C945D000C945D00BC
:100050000C945D000C945D000C945D000C945D00AC
:100060000C945D000C945D000C945D000C945D009C
:100070000C945D000C945D000C945D000C945D008C
:100080000C945D000C945D000C945D0011241FBE67
:10009000CFEFD0E1DEBFCDBF11E0A0E0B1E0E0E006
:1000A000F1E000E00BBF02C007900D92A230B10753
:1000B000D9F70E9465000C947E000C9400008FEF2D
:1000C0008ABB1BBA179A1F9A08950E945F008AB7CD
:1000D00080688ABF89B7806889BF7894FFCF1F92F4
:1000E0000F920FB60F9211248F938BB38F5F8BBB40
:1000F0008F910F900FBE0F901F901895F894FFCF1F
:020100005500A8
:00000001FF
