:100000000C9446000C945D000C945D000C945D0013
:100010000C945D000C945D000C945D000C945D00EC
:100020000C945D000C945D000C945D000C945D00DC
:100030000C945D000C945D000C945D000C945D00CC
:100040000C945D000C945D000C945D000C945D00BC
:100050000C945D000C945D000C945D000C945D00AC
:100060000C945D000C945D000C945D000C945D009C
:100070000C945D000C945D000C945D000C945D008C
:100080000C945D000C945D000C945D0011241FBE67
:10009000CFEFD0E1DEBFCDBF11E0A0E0B1E0E0E402
:1000A000F1E000E00BBF02C007900D92A030B10755
:1000B000D9F70E9493000C949E000C94000080B32A
:1000C000807C80BB80B390E0807C90708034910510
:1000D00049F08038910561F480B3807C8034E1F38D
:1000E00081E005C080B3807C8038E1F382E08BBB87
:1000F00081B1807C81B981B190E0807C9070803446
:10010000910551F08038910569F481B1807C80348B
:10011000E1F384E08BBB089581B1807C8038E1F30A
:1001200088E08BBB089511BA12B88FEF82BB83B9F8
:100130008ABB85E58BBB0E945F00FDCFF894FFCFA3
:00000001FF
