:100000000C9446000C945D000C945D000C945D0013
:100010000C945D000C945D000C945D000C945D00EC
:100020000C945D000C945D000C945D000C945D00DC
:100030000C945D000C945D000C945D000C945D00CC
:100040000C945D000C945D000C945D000C945D00BC
:100050000C945D000C945D000C945D000C945D00AC
:100060000C945D000C945D000C945D000C945D009C
:100070000C945D000C945D000C945D000C945D008C
:100080000C945D000C945D000C945D0011241FBE67
:10009000CFEFD0E1DEBFCDBF11E0A0E0B1E0EAE5F7
:1000A000F1E000E00BBF02C007900D92A030B10755
:1000B000D9F70E945F000C94AB000C9400009FEFF6
:1000C0009ABB85E58BBB10BC1092640090936500D1
:1000D00064E052E041E030E128E0809163008F71FC
:1000E000809363008091630090E08F7190708B31FA
:1000F0009105E1F08C31910534F48F30910521F1B7
:10010000479759F71AC08D31910549F04E9729F755
:10011000809163008F718E31D9F34BBBDECF80911C
:1001200063008F718D31D9F35BBBD7CF80916300B2
:100130008F718B31D9F36BBBD0CF809163008F71FE
:100140008731D9F32BBBC9CF809163008F718F307A
:0A015000D9F33BBBC2CFF894FFCFF8
:00000001FF
