:100000000C9446000C9465000C9465000C946500FB
:100010000C9465000C9465000C9465000C946500CC
:100020000C9465000C9465000C9465000C946500BC
:100030000C9465000C9465000C9465000C946500AC
:100040000C9465000C9465000C9465000C9465009C
:100050000C9465000C9465000C9465000C9465008C
:100060000C9465000C9465000C9465000C9465007C
:100070000C9465000C9465000C9465000C9465006C
:100080000C9465000C9465000C94650011241FBE4F
:10009000CFEFD0E1DEBFCDBF18E0A0E0B1E0ECECE7
:1000A000F7E300E00BBF02C007900D92A036B10746
:1000B000D9F718E0A0E6B8E001C01D92AC39B1074D
:1000C000E1F70E9467000C94E41B0C940000CF92AF
:1000D000DF92EF92FF920F931F930E94CB0180E07B
:1000E00090E060E070E040E051E02FEF3FEF00E093
:1000F00018EF0E94A60A0E943410BC0184E698E022
:100100004AE758E00E94A40D0E9434108C0190939D
:100110006D0880936C08FC016081718160557040AE
:1001200080E090E00E94601620E030E040EB50E478
:100130000E94D0140E9400126B017C01709365082C
:1001400060936408F8016281738180E090E00E940E
:10015000601624E736E444E15EE30E94D61322E60B
:1001600031EA42E551E40E9478130E940012DC015A
:10017000CB019093670880936608B6010E94B00F88
:10018000BACFE62FF0E024E0EE0FFF1F2A95E1F74B
:10019000DC01E65FF04080E101900D928150E1F7D3
:1001A00008958FEF87BB18BA80E58DB91EB8089502
:1001B0008FB9779BFECF8FB10895682FC49AC49AE8
:1001C0009698C5981FB8779BFECF8FB183E08FB903
:1001D000779BFECF8FB1C59A82E18FB9779BFECF17
:1001E0008FB180E38FB9779BFECF8FB1969AC49A77
:1001F0009698C59882E08FB9779BFECF8FB180E14A
:100200008FB9779BFECF8FB1C59A1FB8779BFECF72
:100210008FB11FB8779BFECF8FB1969AC49A9698EC
:10022000C59882E08FB9779BFECF8FB182E18FB9FD
:10023000779BFECF8FB1C59A1FB8779BFECF8FB14A
:100240001FB8779BFECF8FB1969AC49A9698C5989F
:1002500082E08FB9779BFECF8FB181E18FB9779B19
:10026000FECF8FB1C59A1FB8779BFECF8FB18FEEAF
:100270008FB9779BFECF8FB1969AC49A9698C598FE
:1002800082E08FB9779BFECF8FB183E18FB9779BE7
:10029000FECF8FB1C59A81E08FB9779BFECF8FB12A
:1002A0008FE38FB9779BFECF8FB1969AC49A9698B9
:1002B000C59882E08FB9779BFECF8FB11FB8779B2F
:1002C000FECF8FB1C59A1FB8779BFECF8FB11FB8F5
:1002D000779BFECF8FB1969AC49A9698C59882E084
:1002E0008FB9779BFECF8FB181E08FB9779BFECF1F
:1002F0008FB1C59A1FB8779BFECF8FB11FB8779B80
:10030000FECF8FB1969AC49A9698C59882E08FB91D
:10031000779BFECF8FB182E08FB9779BFECF8FB1F5
:10032000C59A969A9698C59A40E050E017C0C49A2C
:100330009698C59A9FB9779BFECF8FB16FB9779B7F
:10034000FECF8FB1969A2F5F3F4F81E02034380760
:1003500071F74F5F5F4F403F510519F020E030E0EB
:10036000E6CF969AC49A9698C5981FB8779BFECF09
:100370008FB183E08FB9779BFECF8FB1C59A80E1B3
:100380008FB9779BFECF8FB180E38FB9779BFECF7C
:100390008FB1969A08959FEF9ABB9BBB80E481BB77
:1003A00091BB97BB18BA80E58DB91EB8C69880E49A
:1003B0009CE9FC013197F1F7C69A0197F1F7C49ACD
:1003C0009698C5981FB8779BFECF8FB11FB8779BC3
:1003D000FECF8FB1C59A1FB8779BFECF8FB181E05A
:1003E0008FB9779BFECF8FB1969A80E29EE40197FA
:1003F000F1F7C49A9698C59881E08FB9779BFECFA4
:100400008FB11FB8779BFECF8FB1C59A1FB8779B6E
:10041000FECF8FB11FB8779BFECF8FB1969AC49A4B
:100420009698C59881E08FB9779BFECF8FB181E018
:100430008FB9779BFECF8FB1C59A1FB8779BFECF40
:100440008FB11FB8779BFECF8FB1969AC49A9698BA
:10045000C59881E08FB9779BFECF8FB182E08FB9CD
:10046000779BFECF8FB1C59A81E38FB9779BFECF83
:100470008FB180E18FB9779BFECF8FB1969AC49AE6
:100480009698C59881E08FB9779BFECF8FB183E0B6
:100490008FB9779BFECF8FB1C59A82EE8FB9779BCC
:1004A000FECF8FB11FB8779BFECF8FB1969AC49ABB
:1004B0009698C59881E08FB9779BFECF8FB180E188
:1004C0008FB9779BFECF8FB1C59A1FB8779BFECFB0
:1004D0008FB18DE98FB9779BFECF8FB1969AC49A71
:1004E0009698C59881E08FB9779BFECF8FB181E157
:1004F0008FB9779BFECF8FB1C59A1FB8779BFECF80
:100500008FB182E28FB9779BFECF8FB1969AC49A52
:100510009698C59881E08FB9779BFECF8FB11FB8B1
:10052000779BFECF8FB1C59A81E08FB9779BFECFC5
:100530008FB180E28FB9779BFECF8FB1969A80E41E
:100540009CE90197F1F7C49A9698C59881E08FB914
:10055000779BFECF8FB11FB8779BFECF8FB1C59A27
:1005600081E38FB9779BFECF8FB180E28FB9779B04
:10057000FECF8FB1969A80E293E028EC30E0F9014B
:100580003197F1F70197D9F7C49A9698C5981FB893
:10059000779BFECF8FB182E08FB9779BFECF8FB173
:1005A000C59A1FB8779BFECF8FB11FB8779BFECF40
:1005B0008FB1969AC49A9698C5981FB8779BFECF2C
:1005C0008FB181E08FB9779BFECF8FB1C59A81E063
:1005D0008FB9779BFECF8FB11FB8779BFECF8FB1BE
:1005E000969AC49A9698C5981FB8779BFECF8FB1FC
:1005F00083E08FB9779BFECF8FB1C59A80E18FB929
:10060000779BFECF8FB180E38FB9779BFECF8FB101
:10061000969AC49A9698C5981FB8779BFECF8FB1CB
:1006200086E08FB9779BFECF8FB1C59A1FB8779BB5
:10063000FECF8FB11FB8779BFECF8FB1969AC49A29
:100640009698C5981FB8779BFECF8FB187E08FB97A
:10065000779BFECF8FB1C59A81E08FB9779BFECF94
:100660008FB181E08FB9779BFECF8FB1969AC49AF4
:100670009698C5981FB8779BFECF8FB188E08FB949
:10068000779BFECF8FB1C59A88E08FB9779BFECF5D
:100690008FB188E08FB9779BFECF8FB1969AC49ABD
:1006A0009698C5981FB8779BFECF8FB189E08FB918
:1006B000779BFECF8FB1C59A1FB8779BFECF8FB1C6
:1006C0001FB8779BFECF8FB1969AC49A9698C5981B
:1006D0001FB8779BFECF8FB18BE08FB9779BFECF92
:1006E0008FB1C59A1FB8779BFECF8FB11FB8779B8C
:1006F000FECF8FB1969AC49A9698C5981FB8779BEB
:10070000FECF8FB18CE08FB9779BFECF8FB1C59AAA
:100710001FB8779BFECF8FB11FB8779BFECF8FB1ED
:10072000969AC49A9698C5981FB8779BFECF8FB1BA
:100730008DE08FB9779BFECF8FB1C59A1FB8779B9D
:10074000FECF8FB188E18FB9779BFECF8FB1969A9C
:10075000C49A9698C5981FB8779BFECF8FB182E157
:100760008FB9779BFECF8FB1C59A1FB8779BFECF0D
:100770008FB11FB8779BFECF8FB1969AC49A969887
:10078000C5981FB8779BFECF8FB183E18FB9779B58
:10079000FECF8FB1C59A1FB8779BFECF8FB11FB820
:1007A000779BFECF8FB1969AC49A9698C5981FB83A
:1007B000779BFECF8FB188E18FB9779BFECF8FB14A
:1007C000C59A1FB8779BFECF8FB11FB8779BFECF1E
:1007D0008FB1969AC49A9698C5981FB8779BFECF0A
:1007E0008FB189E18FB9779BFECF8FB1C59A1FB8C2
:1007F000779BFECF8FB11FB8779BFECF8FB1969AB4
:10080000C49A9698C59882E08FB9779BFECF8FB136
:1008100083E08FB9779BFECF8FB1C59A1FB8779BC6
:10082000FECF8FB11FB8779BFECF8FB1969AC49A37
:100830009698C59882E08FB9779BFECF8FB184E000
:100840008FB9779BFECF8FB1C59A1FB8779BFECF2C
:100850008FB11FB8779BFECF8FB1969AC49A9698A6
:10086000C59882E08FB9779BFECF8FB180E18FB9B9
:10087000779BFECF8FB1C59A1FB8779BFECF8FB104
:100880001FB8779BFECF8FB1969AC49A9698C59859
:1008900082E08FB9779BFECF8FB181E18FB9779BD3
:1008A000FECF8FB1C59A1FB8779BFECF8FB18FEE69
:1008B0008FB9779BFECF8FB1969AC49A9698C598B8
:1008C00082E08FB9779BFECF8FB182E18FB9779BA2
:1008D000FECF8FB1C59A1FB8779BFECF8FB11FB8DF
:1008E000779BFECF8FB1969AC49A9698C59882E06E
:1008F0008FB9779BFECF8FB183E18FB9779BFECF06
:100900008FB1C59A81E08FB9779BFECF8FB18FE30E
:100910008FB9779BFECF8FB1969AC49A9698C59857
:1009200082E08FB9779BFECF8FB184E18FB9779B3F
:10093000FECF8FB1C59A1FB8779BFECF8FB11FB87E
:10094000779BFECF8FB1969AC49A9698C59882E00D
:100950008FB9779BFECF8FB185E18FB9779BFECFA3
:100960008FB1C59A1FB8779BFECF8FB11FB8779B09
:10097000FECF8FB1969AC49A9698C59882E08FB9A7
:10098000779BFECF8FB186E18FB9779BFECF8FB17A
:10099000C59A1FB8779BFECF8FB11FB8779BFECF4C
:1009A0008FB1969AC49A9698C59882E08FB9779B32
:1009B000FECF8FB187E18FB9779BFECF8FB1C59AFC
:1009C0001FB8779BFECF8FB11FB8779BFECF8FB13B
:1009D000969AC49A9698C59883E08FB9779BFECF74
:1009E0008FB11FB8779BFECF8FB1C59A83E58FB9C2
:1009F000779BFECF8FB183E48FB9779BFECF8FB10A
:100A0000969AC49A9698C59883E08FB9779BFECF43
:100A10008FB181E08FB9779BFECF8FB1C59A80E10E
:100A20008FB9779BFECF8FB181E28FB9779BFECFD5
:100A30008FB1969AC49A9698C59883E08FB9779BA0
:100A4000FECF8FB182E08FB9779BFECF8FB1C59A71
:100A50001FB8779BFECF8FB183E08FB9779BFECF16
:100A60008FB1969AC49A9698C59883E08FB9779B70
:100A7000FECF8FB183E08FB9779BFECF8FB1C59A40
:100A80001FB8779BFECF8FB181E18FB9779BFECFE7
:100A90008FB1969AC49A9698C59883E08FB9779B40
:100AA000FECF8FB184E08FB9779BFECF8FB1C59A0F
:100AB00085E08FB9779BFECF8FB18AE08FB9779BA6
:100AC000FECF8FB1969AC49A9698C59883E08FB955
:100AD000779BFECF8FB185E08FB9779BFECF8FB12B
:100AE000C59A83E48FB9779BFECF8FB182E48FB92B
:100AF000779BFECF8FB1969AC49A9698C59883E05B
:100B00008FB9779BFECF8FB186E08FB9779BFECFF1
:100B10008FB1C59A81E18FB9779BFECF8FB11FB896
:100B2000779BFECF8FB1969AC49A9698C59883E02A
:100B30008FB9779BFECF8FB187E08FB9779BFECFC0
:100B40008FB1C59A1FB8779BFECF8FB183E08FB965
:100B5000779BFECF8FB1969AC49A9698C59883E0FA
:100B60008FB9779BFECF8FB188E08FB9779BFECF8F
:100B70008FB1C59A82E18FB9779BFECF8FB181E0AB
:100B80008FB9779BFECF8FB1969AC49A9698C598E5
:100B900083E08FB9779BFECF8FB189E08FB9779BC8
:100BA000FECF8FB1C59A85E08FB9779BFECF8FB10D
:100BB0008AE08FB9779BFECF8FB1969AC49A9698A8
:100BC000C59884E08FB9779BFECF8FB11FB8779B14
:100BD000FECF8FB1C59A80E48FB9779BFECF8FB1DE
:100BE00087E28FB9779BFECF8FB1969AC49A969879
:100BF000C59884E08FB9779BFECF8FB181E08FB924
:100C0000779BFECF8FB1C59A1FB8779BFECF8FB170
:100C10001FB8779BFECF8FB1969AC49A9698C598C5
:100C200084E08FB9779BFECF8FB182E08FB9779B3D
:100C3000FECF8FB1C59A1FB8779BFECF8FB11FB87B
:100C4000779BFECF8FB1969AC49A9698C59884E008
:100C50008FB9779BFECF8FB183E08FB9779BFECFA3
:100C60008FB1C59A81E08FB9779BFECF8FB18FE3AB
:100C70008FB9779BFECF8FB1969AC49A9698C598F4
:100C800084E08FB9779BFECF8FB184E08FB9779BDB
:100C9000FECF8FB1C59A1FB8779BFECF8FB11FB81B
:100CA000779BFECF8FB1969AC49A9698C59882E0AA
:100CB0008FB9779BFECF8FB11FB8779BFECF8FB1D7
:100CC000C59A1FB8779BFECF8FB11FB8779BFECF19
:100CD0008FB1969AC49A9698C59882E08FB9779BFF
:100CE000FECF8FB181E08FB9779BFECF8FB1C59AD0
:100CF0001FB8779BFECF8FB11FB8779BFECF8FB108
:100D0000969AC49A9698C59881E08FB9779BFECF42
:100D10008FB11FB8779BFECF8FB1C59A81E78FB98E
:100D2000779BFECF8FB180E28FB9779BFECF8FB1DB
:100D3000969AC49A9698C5981FB8779BFECF8FB1A4
:100D400087E08FB9779BFECF8FB1C59A81E08FB9CD
:100D5000779BFECF8FB183E08FB9779BFECF8FB1AA
:100D6000969A80E29EE40197F1F7C49A9698C59806
:100D70001FB8779BFECF8FB187E08FB9779BFECFEF
:100D80008FB1C59A81E08FB9779BFECF8FB183E198
:100D90008FB9779BFECF8FB1969A80E098EF0E9433
:100DA000DD00089508959C01803F910508F0A9C0D9
:100DB00081E06034780708F0A4C0C49AC49A969879
:100DC000C59882E08FB9779BFECF8FB180E18FB954
:100DD000779BFECF8FB1C59A1FB8779BFECF8FB19F
:100DE0001FB8779BFECF8FB1969AC49A9698C598F4
:100DF00082E08FB9779BFECF8FB182E18FB9779B6D
:100E0000FECF8FB1C59A1FB8779BFECF8FB11FB8A9
:100E1000779BFECF8FB1969AC49A9698C59882E038
:100E20008FB9779BFECF8FB181E18FB9779BFECFD2
:100E30008FB1C59A1FB8779BFECF8FB180EF8FB966
:100E4000779BFECF8FB1969AC49A9698C59882E008
:100E50008FB9779BFECF8FB183E18FB9779BFECFA0
:100E60008FB1C59A81E08FB9779BFECF8FB180E4B7
:100E70008FB9779BFECF8FB1969AC49A9698C598F2
:100E800082E08FB9779BFECF8FB11FB8779BFECFE3
:100E90008FB1C59A1FB8779BFECF8FB12FB9779BC3
:100EA000FECF8FB1969AC49A9698C59882E08FB972
:100EB000779BFECF8FB181E08FB9779BFECF8FB14B
:100EC000C59A7FB9779BFECF8FB16FB9779BFECF65
:100ED0008FB1969AC49A9698C59882E08FB9779BFD
:100EE000FECF8FB182E08FB9779BFECF8FB1C59ACD
:100EF0005FB9779BFECF8FB14FB9779BFECF8FB194
:100F0000969A08956F927F928F929F92AF92BF921E
:100F1000CF92DF92EF92FF920F931F93CF93DF93C5
:100F20006C017B014A01590138014817590710F437
:100F30006A014C01AE14BF0418F4C50157017C01CD
:100F400094012C193D0961F4C601B701A3010E9467
:100F5000D3060894E11CF11CAE14BF04A8F75BC0D3
:100F6000C5018E199F0961F4C601B701A3010E9452
:100F7000D3060894C11CD11C8C149D04A8F74BC047
:100F80008C01000F111FAC01421B530B82179307FA
:100F9000F4F4E801C21BD30B5A01AA0CBB1C13C00A
:100FA000C601B701A3010E94D3061C161D0634F426
:100FB0000894E11CF11CCA0DDB1D02C0C00FD11F3B
:100FC0000894C11CD11CC814D90451F71FC0E901F1
:100FD000CC0FDD1FC81BD90B4A01880C991C13C00C
:100FE000C601B701A3010E94D3061C161D0634F4E6
:100FF0000894C11CD11CC80DD91D02C0C00FD11F3F
:101000000894E11CF11CEA14FB0451F7C601B70176
:10101000A3010E94D306DF91CF911F910F91FF9002
:10102000EF90DF90CF90BF90AF909F908F907F9088
:101030006F9008952F923F924F925F926F927F929E
:101040008F929F92AF92BF92CF92DF92EF92FF92D8
:101050000F931F93DF93CF93CDB7DEB762970FB691
:10106000F894DEBF0FBECDBF7C015B015A8B498B6C
:1010700069014115510509F420C19A01260F371F56
:101080003C872B8781E0203438072CF4C701B90155
:10109000A6010E94D3061501E989FA892E1A3F0A92
:1010A00037FC05C0C701B101A6010E94D3064988DB
:1010B0005A884E0C5F1CF0EF4F1651042CF4C201FD
:1010C000B501A6010E94D306370129893A89621A1F
:1010D000730A77FC05C0C301B501A6010E94D306BF
:1010E00089899A898130910509F4E7C0880F991F91
:1010F00000271127081B190B0D5F1F4F4701EB85B8
:10110000FC85F88BEF87FE86ED863A862986588621
:101110004F8275017E826D8229893A893C832B83B7
:101120001A8A198A1A821982C0C017FF07C00A5F7B
:101130001F4F89819A81080F191F35C0065F1F4F05
:1011400089899A89EB81FC818E1B9F0B880F991FDF
:10115000880F991F080F191F3197FC83EB832F8588
:10116000388921503040388B2F878B859C8501979B
:101170009C878B87E985FA853196FA87E9870894F9
:10118000211C311C2F8138852150304038872F8316
:101190008D819E8101969E838D830894410851081C
:1011A0000894611C711CE989FA893196FA8BE98BE4
:1011B0000894811C911C2D853E85215030403E872E
:1011C0002D870894E11CF11C0894A108B10831EFA7
:1011D0008316910454F48F85988997FD06C0C40145
:1011E0006F857889A6010E94D306ED85FE85F7FDFF
:1011F00009C02B853C8537FD05C0CF01B901A6018B
:101200000E94D30631EF831691045CF489859A8598
:101210008154914034F4C40169857A85A6010E9405
:10122000D3062D853E8537FD0BC031E4231631E012
:10123000330634F48D859E85B101A6010E94D30644
:101240008F819885813F910534F4F7FC04C0B70184
:10125000A6010E94D306ED81FE81F7FD07C0F7FCD1
:1012600005C0CF01B701A6010E94D306F1EF4F16CA
:10127000510454F421E4A21621E0B2062CF4C20178
:10128000B501A6010E94D30677FC0AC031E4A3167B
:1012900031E0B3062CF4C301B501A6010E94D306C8
:1012A00089819A8104969A838983E989FA892B81B5
:1012B0003C81E217F3070CF438CF62960FB6F8942E
:1012C000DEBF0FBECDBFCF91DF911F910F91FF9079
:1012D000EF90DF90CF90BF90AF909F908F907F90D6
:1012E0006F905F904F903F902F9008950F931F93B2
:1012F000CF93DF938EED97EF0E94DD00C0E0D0E04A
:1013000080E090E0BE0140EF50E09E0100E010E080
:101310000E9482072A9681E0C034D80789F7C0E08E
:10132000D0E0CE0160E070E0AE0120E431E000E00A
:1013300010E00E9482072A96C03FD10591F7DF9105
:10134000CF911F910F910895CF92DF92EF92FF926C
:101350000F931F93DF93CF93CDB7DEB760970FB690
:10136000F894DEBF0FBECDBFFC01C22EE32ED02EFF
:10137000F12EC49A9698C59882E08FB9779BFECFDC
:101380008FB180E18FB9779BFECF8FB1C59ABF2F08
:10139000FFB9779BFECF8FB1AE2FEFB9779BFECF12
:1013A0008FB1969AC49A9698C59882E08FB9779B28
:1013B000FECF8FB182E18FB9779BFECF8FB1C59AF7
:1013C000572F7FB9779BFECF8FB1962F6FB9779B41
:1013D000FECF8FB1969A9F01295F3F4FC49A96988E
:1013E000C59882E08FB9779BFECF8FB181E18FB92D
:1013F000779BFECF8FB1C59A3FB9779BFECF8FB158
:101400002FB9779BFECF8FB1969A615F7F4FC49AB9
:101410009698C59882E08FB9779BFECF8FB183E114
:101420008FB9779BFECF8FB1C59A7FB9779BFECFDF
:101430008FB16FB9779BFECF8FB1969AC49A969869
:10144000C59882E08FB9779BFECF8FB11FB8779B8D
:10145000FECF8FB1C59ABFB9779BFECF8FB1AFB921
:10146000779BFECF8FB1969AC49A9698C59882E0E2
:101470008FB9779BFECF8FB181E08FB9779BFECF7D
:101480008FB1C59A5FB9779BFECF8FB19FB9779B1C
:10149000FECF8FB1969AC49A9698C59882E08FB97C
:1014A000779BFECF8FB182E08FB9779BFECF8FB154
:1014B000C59A969A9698C59A8E010F5F1F4FC801DC
:1014C000642F0E94C100F801BE016F5E7F4F8081D2
:1014D00027E030E0482F50E0CA01022E02C0959567
:1014E00087950A94E2F780FF0BC0C49A9698C59A34
:1014F000EFB8779BFECF8FB1CFB8779BFECF0AC0F6
:10150000C49A9698C59AFFB8779BFECF8FB1DFB883
:10151000779BFECF8FB1969A215030408FEF2F3FAF
:101520003807D1F63196E617F70789F6969A60964E
:101530000FB6F894DEBF0FBECDBFCF91DF911F91E4
:101540000F91FF90EF90DF90CF9008958F929F9230
:10155000AF92BF92CF92DF92EF92FF920F931F93C1
:10156000CF93DF93EC017B016A0149015801F60139
:1015700041916F01CE01B701940185010E94A40938
:10158000C03FD10510F4289610C0F0E4EF16F1E04A
:10159000FF0628F0C0E0D0E0EE24FF2406C080E182
:1015A00090E0E80EF91EC0E0D0E0F60180818823CB
:1015B000F1F6DF91CF911F910F91FF90EF90DF90A7
:1015C000CF90BF90AF909F908F9008952F923F92B1
:1015D0004F925F926F927F928F929F92AF92BF9243
:1015E000CF92DF92EF92FF920F931F93DF93CF93EF
:1015F000CDB7DEB764970FB6F894DEBF0FBECDBF90
:101600009C8B8B8BFB012A01208131813A8B298BAA
:101610002084318422193309388B2F8746815781E2
:101620005E874D87828593859C878B87481B590BE6
:101630005A874987A481B581B887AF83A219B309B6
:10164000BE83AD83228133813C832B83281B390BDE
:101650003A8329838F859889489FB001499F700DEF
:10166000589F700D1124F901EA9F9001EB9F300DF6
:10167000FA9F300D1124621B730B80E090E00E94F2
:101680006016D20158966D937D938D939C935B97D2
:1016900020E030E040E050E00E947C15882311F407
:1016A00080E065C1EB89FC89A080B180008511854F
:1016B0004501801A910A84E0682E712C6E0E7F1EFF
:1016C000C480D5807601E01AF10A29853A85829E88
:1016D000B001839E700D929E700D112449815A8134
:1016E000E49E9001E59E300DF49E300D1124621BA6
:1016F000730B80E090E00E946016D2016D937D93A1
:101700008D939C931397EF85F889EE9EB001EF9E21
:10171000700DFE9E700D11244D815E81849E90019E
:10172000859E300D949E300D1124621B730B80E05A
:1017300090E00E946016D20114966D937D938D9374
:101740009C931797E989FA890E9FC0010F9F900D0E
:101750001E9F900D1124A29C9001A39C300DB29C61
:10176000300D1124821B930B2D853E85829FB00185
:10177000839F700D929F700D1124C29C9001C39C99
:10178000300DD29C300D11248F819885089FA001C7
:10179000099F500D189F500D1124241B350BD901A2
:1017A000EB81FC81AE9F9001AF9F300DBE9F300D4D
:1017B0001124620F731FA89E9001A99E300DB89E40
:1017C000300D112489899A89C89EA001C99E500DA7
:1017D000D89E500D1124241B350BD901EB85FC85B7
:1017E000AE9F9001AF9F300DBE9F300D1124620F50
:1017F000731F80E090E00E946016D20118966D93EE
:101800007D938D939C931B97EB89FC89A280B38079
:101810003896028113814501801A910AD3011296EC
:10182000CD90DC9013977601E01AF10AE985FA85EC
:101830008E9EB0018F9E700D9E9E700D1124498169
:101840005A81E49E9001E59E300DF49E300D1124E6
:10185000621B730B80E090E00E946016D2011C9620
:101860006D937D938D939C931F97EF85F889EE9EE2
:10187000B001EF9E700DFE9E700D11244D815E81B2
:10188000849E9001859E300D949E300D1124621B24
:10189000730B80E090E00E946016D20150966D9329
:1018A0007D938D939C935397E989FA890E9FC0018C
:1018B0000F9F900D1E9F900D1124A29C9001A39C40
:1018C000300DB29C300D1124821B930B2D853E856B
:1018D000829FB001839F700D929F700D1124C29C56
:1018E0009001C39C300DD29C300D11248F819885BE
:1018F000089FA001099F500D189F500D1124241B13
:10190000350BD901EB81FC81AE9F9001AF9F300D6B
:10191000BE9F300D1124620F731FA89E9001A99ED7
:10192000300DB89E300D112489899A89C89EA00176
:10193000C99E500DD89E500D1124241B350BD90182
:10194000EB85FC85AE9F9001AF9F300DBE9F300DA3
:101950001124620F731F80E090E00E946016D20194
:1019600054966D937D938D939C93579781E06496E5
:101970000FB6F894DEBF0FBECDBFCF91DF911F91A0
:101980000F91FF90EF90DF90CF90BF90AF909F901E
:101990008F907F906F905F904F903F902F90089521
:1019A00082E799E090936F0880936E0880ED9BE04A
:1019B000909371088093700880EC9CE0909373087A
:1019C0008093720880EC99E0909375088093740876
:1019D00088E69EE0909377088093760880E59EE005
:1019E00090937908809378088EE397E06EE678E02C
:1019F0004AE758E00E94E60A08950F931F938091EA
:101A000064089091650868EE73E00E94CE18462F36
:101A1000405D80E290E06EE370E020E030E00EEDAB
:101A200017EF0E94A409809164089091650868EE00
:101A300073E00E94CE1864E670E00E94CE18462F34
:101A4000405D88E290E06EE370E020E030E00E94CC
:101A5000A409809164089091650864E670E00E9492
:101A6000CE186AE070E00E94CE18462F405D80E3F9
:101A700090E06EE370E020E030E00E94A4098091E5
:101A80006408909165086AE070E00E94CE18482FC3
:101A9000405D88E390E06EE370E020E030E00E947B
:101AA000A409809166089091670868EE73E00E942F
:101AB000CE18462F405D80E290E06EE470E020E0BA
:101AC00030E00E94A409809166089091670868EE52
:101AD00073E00E94CE1864E670E00E94CE18462F94
:101AE000405D88E290E06EE470E020E030E00E942B
:101AF000A409809166089091670864E670E00E94EE
:101B0000CE186AE070E00E94CE18462F405D80E358
:101B100090E06EE470E020E030E00E94A409809143
:101B20006608909167086AE070E00E94CE18482F1E
:101B3000405D88E390E06EE470E020E030E00E94D9
:101B4000A4091F910F9108952F923F924F925F9297
:101B50006F927F928F929F92AF92BF92CF92DF92BD
:101B6000EF92FF920F931F93DF93CF93CDB7DEB722
:101B70002E970FB6F894DEBF0FBECDBF9A87898728
:101B80007C876B875E874D87DA0158968D919D9192
:101B90000D90BC91A02D8D839E83AF83B887BC012F
:101BA000CD0120E030E040E050E00E94AC158823F9
:101BB00009F413C1EB85FC856081718180E090E0C0
:101BC0000E946016AD85BE852D913D914D915C9131
:101BD0000E94D6137B018C01EB85FC8562817381A9
:101BE00080E090E00E9460165B016C01AD85BE85CF
:101BF00014962D913D914D915C9117970E94D613AB
:101C00009B01AC01C801B7010E94A913ED85FE85B7
:101C100020853185428553850E94A9132D813E81FF
:101C20004F8158850E94D0140E940012A985BA8560
:101C30006D937C93ED85FE8564847584868497849A
:101C4000208831884288538884899589A689B789F4
:101C500089839A83AB83BC83EB85FC85608171812A
:101C600080E090E00E9460169B01AC01C401B301CA
:101C70000E94D6137B018C01C201B101A60195011E
:101C80000E94D6139B01AC01C801B7010E94A913A1
:101C900029813A814B815C810E94A9132D813E816B
:101CA0004F8158850E94D0140E940012A985BA85E0
:101CB00013967C936E93129700D000D000D0CDB6CF
:101CC000DEB60894C11CD11C8AEF96E0EDB7FEB7D2
:101CD00092838183AB85BC856D917C9180E090E09F
:101CE0000E9460169B01AC01C401B3010E94D6138F
:101CF0007B018C01EB85FC856281738180E090E043
:101D00000E9460169B01AC01C201B1010E94D61372
:101D10009B01AC01C801B7010E94A91329813A8136
:101D20004B815C810E94A913D60112966D937D931D
:101D30008D939C9315970E942C19CDB6DEB608940E
:101D4000C11CD11C8EE097E0EDB7FEB79283818372
:101D5000AB85BC856D917C9180E090E00E9460161F
:101D6000ED85FE8524853585468557850E94D613E9
:101D70007B018C01AB85BC8512966D917C9113978C
:101D800080E090E00E946016ED85FE852089318913
:101D9000428953890E94D6139B01AC01C801B70147
:101DA0000E94A913AD85BE8554962D913D914D910C
:101DB0005C9157970E94A913F60162837383848311
:101DC00095830E942C1981E02DB73EB72A5F3F4FC3
:101DD0000FB6F8943EBF0FBE2DBF2E960FB6F894E7
:101DE000DEBF0FBECDBFCF91DF911F910F91FF904E
:101DF000EF90DF90CF90BF90AF909F908F907F90AB
:101E00006F905F904F903F902F9008952F923F9248
:101E10004F925F926F927F928F929F92AF92BF92FA
:101E2000CF92DF92EF92FF920F931F93DF93CF93A6
:101E300000D000D0CDB7DEB77C015B01342E252E5B
:101E400041EF842E4FEF942E880E991EAC01425024
:101E50005040C4019501032D122D0E9482073FE0DE
:101E6000432E512C4E0C5F1CC7010296B501A201F6
:101E700095010E94820721EF622E2FEF722E6A0CCD
:101E80007B1C950122503040C701B301A7010E947D
:101E900082079FE0C92ED12CCA0CDB1CB5016E5FF6
:101EA0007F4FC701A70196010E948207C7010797CC
:101EB0009C838B83C401B6014B815C8196010E9497
:101EC0008207F5013796FA83E983C401BF01A401B3
:101ED00096010E948207C401B3014B815C8193018A
:101EE0000E94820789EF9FEFA80EB91EC401B501B9
:101EF000A40193010E948207E7E0F0E0EE0EFF1ECE
:101F0000C701B601A20196010E948207C201698140
:101F10007A81A20196010E948207C701B301A20142
:101F200093010E948207C201B301A20195010E94A0
:101F300082070F900F900F900F90CF91DF911F911C
:101F40000F91FF90EF90DF90CF90BF90AF909F9058
:101F50008F907F906F905F904F903F902F9008955B
:101F6000CF92DF92EF92FF920F931F938C017B0130
:101F700040E050E00E94D30668010894C11CD11CC7
:101F8000C601B70140E050E00E94D3060894E11C6E
:101F9000F11CC801B70140E050E00E94D306C60121
:101FA000B70140E050E00E94D3061F910F91FF90CF
:101FB000EF90DF90CF900895EF92FF920F931F93D1
:101FC000969AC49815E0912F9A95F1F790E00E94A7
:101FD000D8001A95F1F780E090E00E94D8007C01CB
:101FE00080E090E00E94D8000027F7FC0095102FB9
:101FF000102F0F2DFE2CEE24AA2797FDA095BA2FA7
:10200000E80EF91E0A1F1B1FC49A54E01695079587
:10201000F794E7945A95D1F7B701C8011F910F9132
:10202000FF90EF900895AF92BF92CF92DF92EF9220
:10203000FF920F931F936C015B0180E90E94DC0FFC
:102040007B018C0180ED0E94DC0FF601F182E082C1
:10205000F501718360831F910F91FF90EF90DF90E6
:10206000CF90BF90AF900895AF92BF92CF92DF9282
:10207000FF920F931F93DF93CF93CDB7DEB7A8974F
:102080000FB6F894DEBF0FBECDBFFE01359684E2D9
:10209000DF011D928A95E9F78F01FF2473E0A72ED7
:1020A000B12CAC0EBD1E6E010894C11CD11CC60122
:1020B000B5010E94131089819A81F8019183808370
:1020C0008B819C81938B828BF3940C9B05C0F9E0F0
:1020D000FF1609F0DAC005C00E5F1F4F89E0F81641
:1020E00031F78F8198852D813E81820F931F29853D
:1020F0003A85820F931F63E070E00E94E2188B0123
:102100008D859E852B853C85820F931F2F85388971
:10211000820F931F63E070E00E94E218FB018B893D
:102120009C8929893A89820F931F2D893E89820FC4
:10213000931F63E070E00E94E218CB019F01261B11
:10214000370BDB01A01BB10BB8016E1B7F0B77FFB8
:1021500003C0709561957F4FA90137FF03C050956B
:1021600041955F4F9D01B7FF03C0309521953F4FCB
:10217000633071053CF04330510524F023303105C4
:102180000CF083C0641775072CF4261737072CF062
:10219000CF0103C0241735071CF4800F911F02C024
:1021A0008E0F9F1F62E070E00E94E218709361083A
:1021B00060936008898D9A8D2F89388D820F931FC7
:1021C0002B8D3C8D820F931F63E070E00E94E2181C
:1021D0008B018F8D98A12D8D3E8D820F931F29A18C
:1021E0003AA1820F931F63E070E00E94E218FB01A6
:1021F0008DA19EA12BA13CA1820F931F2FA138A5D9
:10220000820F931F63E070E00E94E218CB019F01F0
:10221000261B370BDB01A01BB10BB8016E1B7F0B1C
:1022200077FF03C0709561957F4FA90137FF03C009
:10223000509541955F4F9D01B7FF03C030952195A3
:102240003F4F6330710534F0433051051CF02330AB
:102250003105DCF4641775072CF4261737072CF0CA
:10226000CF0103C0241735071CF4800F911F02C053
:102270008E0F9F1F62E070E00E94E2187093630867
:102280006093620820E638E002C020E030E0C90137
:10229000A8960FB6F894DEBF0FBECDBFCF91DF91E9
:1022A0001F910F91FF90DF90CF90BF90AF90089556
:1022B0008F929F92AF92BF92CF92DF92EF92FF9256
:1022C0000F931F93CF93DF935C016B01CB010E94AF
:1022D000DD00CEE6D8E0FEE3EF2EF7E0FF2EE8ECDF
:1022E0008E2E912C8AE090E064E670E041E257E0A7
:1022F000950186010E94A60A88EB9BE0F4013197C4
:10230000F1F70197D9F7F70162817381808191819B
:10231000A5010E94060F0E943410FC010097D9F31A
:102320008081918199838883828193819B838A8331
:10233000F7016281738180819181A6010E94060F5D
:10234000249684E090E0E80EF91E98E0CA37D90799
:1023500049F62C978EE397E0BE014AE758E00E94C9
:10236000E60A8AE090E064E670E041E257E0960118
:1023700086010E94A60ADF91CF911F910F91FF90D5
:10238000EF90DF90CF90BF90AF909F908F90089587
:102390001F93182F8A3019F48DE00E94C8115D9B9D
:1023A000FECF1CB980E090E01F9108955D9BFECFA9
:1023B0008CB908955F9B07C08BB19CB18C7119F4E7
:1023C000292F30E002C02FEF3FEFC90108955F9B36
:1023D000FECF8BB19CB18C71D1F7892F08951BB8BA
:1023E00088E98AB986E080939500109290008FE288
:1023F00089B98AE497E090939908809398080895A2
:10240000EF92FF920F931F937B018C0120E030E04D
:1024100040E05FE40E94DC1588238CF0C801B7011E
:1024200020E030E040E05FE40E9478130E940C1648
:102430009B01AC01205030404040504806C0C801CC
:10244000B7010E940C169B01AC01B901CA011F9192
:102450000F91FF90EF900895A0E0B0E0E2E3F2E189
:102460000C94F518DC012B01FA019C91923008F4D0
:1024700039C1EB018881823008F433C1943069F4AA
:10248000843009F02FC111969C911197898198177A
:1024900009F428C1A8E5B7E025C1843009F421C1B9
:1024A0008230A9F4923009F01DC19A01AD0188E093
:1024B000EA010990AE01E90109929E018150C1F73C
:1024C000E201898111969C918923818308C1923010
:1024D00009F407C112962D903C901397EB018A8165
:1024E0009B811496AD90BD90CD90DC901797EC80B9
:1024F000FD800E811F819101281B390BB90137FF27
:1025000004C066277727621B730B603271050CF0DD
:1025100061C0121613066CF537014801062E04C07F
:1025200096948794779467940A94D2F721E030E0E8
:1025300040E050E004C0220F331F441F551F6A952E
:10254000D2F721503040404050402E213F214023BF
:102550005123211531054105510521F021E030E0DD
:1025600040E050E079018A01E628F7280829192976
:102570003CC0232BD1F1260E371E35014601062E15
:1025800004C096948794779467940A94D2F721E0D4
:1025900030E040E050E004C0220F331F441F551FBD
:1025A0006A95D2F721503040404050402A213B21CB
:1025B0004C215D21211531054105510521F021E016
:1025C00030E040E050E059016A01A628B728C82849
:1025D000D9280BC0821593052CF01C01AA24BB241A
:1025E000650103C0EE24FF24870111969C91D2015E
:1025F00011968C91981709F445C0992339F0A801D8
:1026000097012A193B094C095D0906C0A6019501ED
:102610002E193F09400B510B57FD08C01182338220
:10262000228224833583468357831DC081E08183C2
:102630003382228288279927DC01821B930BA40B0B
:10264000B50B84839583A683B7830DC0220F331FF8
:10265000441F551F2483358346835783828193818A
:102660000197938382832481358146815781DA01E2
:10267000C9010197A109B1098F5F9F4FAF4FBF43B8
:1026800028F30BC0918333822282EA0CFB1C0C1DC1
:102690001D1DE482F5820683178383E080832481F5
:1026A00035814681578157FF1AC0C901AA2797FD76
:1026B000A095BA2F81709070A070B0705695479514
:1026C00037952795822B932BA42BB52B8483958349
:1026D000A683B78382819381019693838283DF01EE
:1026E00001C0D201CD01CDB7DEB7E2E10C941119E2
:1026F000A0E2B0E0EEE7F3E10C94011969837A837C
:102700008B839C832D833E834F835887E9E0EE2E95
:10271000F12CEC0EFD1ECE010196B7010E94FD17B3
:102720008E010F5E1F4FCE010596B8010E94FD1766
:102730008A8991E089278A8BC701B801AE01475E7B
:102740005F4F0E942C120E942817A096E6E00C947E
:102750001D19A0E2B0E0EFEAF3E10C9401196983DE
:102760007A838B839C832D833E834F835887F9E044
:10277000EF2EF12CEC0EFD1ECE010196B7010E944A
:10278000FD178E010F5E1F4FCE010596B8010E9406
:10279000FD17C701B801AE01475E5F4F0E942C12C2
:1027A0000E942817A096E6E00C941D19A0E2B0E064
:1027B000ECEDF3E10C94F51869837A838B839C83A9
:1027C0002D833E834F835887CE010196BE01675FFC
:1027D0007F4F0E94FD17CE010596BE016F5E7F4FB1
:1027E0000E94FD179985923088F089898230C8F05F
:1027F000943019F4823051F404C0843029F49230BA
:1028000081F488E597E0C6C0923049F420E09A85CB
:102810008A89981321E02A87CE010996BBC08230AD
:1028200049F420E09A858A89981321E02A8BCE0109
:102830004196B0C02D843E844F8458886D887E8830
:102840008F88988CEE24FF248701AA24BB2465017D
:1028500040E050E060E070E0E0E0F0E0C101817055
:102860009070892BE9F0E60CF71C081D191D9A01E0
:10287000AB012A0D3B1D4C1D5D1D80E090E0A0E0EA
:10288000B0E0E614F7040805190520F481E090E0B3
:10289000A0E0B0E0BA01A901480F591F6A1F7B1FD1
:1028A000AA0CBB1CCC1CDD1C97FE08C081E090E08C
:1028B000A0E0B0E0A82AB92ACA2ADB2A3196E03281
:1028C000F10549F0660C771C881C991C56944794B6
:1028D00037942794C3CFFA85EA892B893C898B8565
:1028E0009C85280F391F2E5F3F4F17C0CA0181708A
:1028F0009070892B61F016950795F794E79480E026
:1029000090E0A0E0B0E8E82AF92A0A2B1B2B769584
:102910006795579547952F5F3F4F77FDE7CF0CC0E1
:10292000440F551F661F771F17FD4160EE0CFF1CFB
:10293000001F111F21503040403090E0590790E0B7
:10294000690790E4790760F32B8F3C8FDB01CA01A4
:102950008F779070A070B07080349105A105B1059B
:1029600061F447FD0AC0E114F1040105110529F0E5
:10297000405C5F4F6F4F7F4F40781A8EFE1711F00B
:1029800081E08A8F4D8F5E8F6F8F78A383E0898F70
:10299000CE0149960E942817A096E2E10C941119E5
:1029A000A8E1B0E0E6EDF4E10C94FD1869837A83C8
:1029B0008B839C832D833E834F835887B9E0EB2E16
:1029C000F12CEC0EFD1ECE010196B7010E94FD1701
:1029D0008E010F5E1F4FCE010596B8010E94FD17B4
:1029E0002985223008F47EC03989323010F4B801CC
:1029F0007CC08A859A8989278A87243011F0223001
:102A000031F4231709F06EC068E577E06EC034300A
:102A100039F41D861E861F86188A1C861B8604C0F4
:102A2000323021F484E08987B7015FC02B853C8573
:102A30008B899C89281B390B3C872B87ED84FE846E
:102A40000F851889AD88BE88CF88D88CEA14FB041E
:102A50000C051D0540F4EE0CFF1C001F111F21503A
:102A600030403C872B8720E030E040E050E080E0C1
:102A700090E0A0E0B0E460E070E0EA14FB040C0534
:102A80001D0540F0282B392B4A2B5B2BEA18FB083D
:102A90000C091D09B695A79597958795EE0CFF1C17
:102AA000001F111F6F5F7F4F6F31710531F7DA0122
:102AB000C9018F779070A070B07080349105A10526
:102AC000B10561F427FD0AC0E114F1040105110507
:102AD00029F0205C3F4F4F4F5F4F20782D873E8776
:102AE0004F87588BBE01675F7F4FCB010E9428172D
:102AF0006896EAE00C941919A8E1B0E0E2E8F5E183
:102B00000C94011969837A838B839C832D833E8384
:102B10004F83588789E0E82EF12CEC0EFD1ECE0184
:102B20000196B7010E94FD178E010F5E1F4FCE0167
:102B30000596B8010E94FD178985823040F0898989
:102B4000823028F0C701B8010E94751801C081E0E9
:102B50006896E6E00C941D19A8E1B0E0E2EBF5E11F
:102B60000C94011969837A838B839C832D833E8324
:102B70004F83588789E0E82EF12CEC0EFD1ECE0124
:102B80000196B7010E94FD178E010F5E1F4FCE0107
:102B90000596B8010E94FD178985823040F0898929
:102BA000823028F0C701B8010E94751801C081E089
:102BB0006896E6E00C941D19A8E1B0E0E2EEF5E1BC
:102BC0000C94011969837A838B839C832D833E83C4
:102BD0004F83588789E0E82EF12CEC0EFD1ECE01C4
:102BE0000196B7010E94FD178E010F5E1F4FCE01A7
:102BF0000596B8010E94FD178985823040F08989C9
:102C0000823028F0C701B8010E94751801C08FEF0B
:102C10006896E6E00C941D19ACE0B0E0E2E1F6E164
:102C20000C94051969837A838B839C83CE0101966A
:102C3000BE016B5F7F4F0E94FD178D81823061F175
:102C4000823050F1843021F48E81882351F12EC0DE
:102C50002F81388537FD20C06E812F3131051CF062
:102C60006623F9F023C08EE190E0821B930B298547
:102C70003A854B855C8504C05695479537952795D1
:102C80008A95D2F76623B1F05095409530952195FD
:102C90003F4F4F4F5F4F0EC020E030E040E050E02C
:102CA00009C02FEF3FEF4FEF5FE704C020E030E0B7
:102CB00040E050E8B901CA012C96E2E00C942119D9
:102CC000A8E0B0E0E6E6F6E10C94FD187B018C018B
:102CD000611571058105910519F482E0898360C051
:102CE00083E089838EE1C82ED12CDC82CB82ED82F9
:102CF000FE820F831887C801B7010E94D916FC0114
:102D00003197F7FF3BC0222733272E1B3F0B57017C
:102D10006801022E04C0D694C794B794A7940A946D
:102D2000D2F740E050E060E070E081E090E0A0E0A9
:102D3000B0E004C0880F991FAA1FBB1F2A95D2F7C5
:102D40000197A109B1098E219F21A023B1230097EA
:102D5000A105B10521F041E050E060E070E04A29B2
:102D60005B296C297D294D835E836F8378878EE193
:102D700090E08E1B9F0B9C838B8312C0309781F059
:102D80000E2E04C0EE0CFF1C001F111F0A94D2F778
:102D9000ED82FE820F831887CE1ADF0ADC82CB8297
:102DA0001A82CE0101960E9428172896EAE00C9418
:102DB0001919EF92FF920F931F937B018C0180E012
:102DC000E81680E0F80681E0080780E0180788F43C
:102DD0008FEFE816F1040105110531F028F088E0C5
:102DE00090E0A0E0B0E017C080E090E0A0E0B0E0AC
:102DF00012C080E0E81680E0F80680E0080781E075
:102E0000180728F088E190E0A0E0B0E004C080E17D
:102E100090E0A0E0B0E020E230E040E050E0281B8D
:102E2000390B4A0B5B0B04C016950795F794E79492
:102E30008A95D2F7F701E05AF84F8081281B3109B3
:102E400041095109C9011F910F91FF90EF90089519
:102E5000DF92EF92FF920F931F93FC01E480F580C5
:102E600006811781D1808081823048F480E090E033
:102E7000A0E1B0E0E82AF92A0A2B1B2BA5C0843078
:102E800009F49FC0823021F4EE24FF24870105C09D
:102E9000E114F1040105110519F4E0E0F0E096C039
:102EA000628173819FEF623879070CF05BC022E882
:102EB0003FEF261B370B2A3131052CF020E030E0A4
:102EC00040E050E02AC0B801A701022E04C0769568
:102ED0006795579547950A94D2F781E090E0A0E076
:102EE000B0E004C0880F991FAA1FBB1F2A95D2F714
:102EF0000197A109B1098E219F21A023B123009739
:102F0000A105B10521F081E090E0A0E0B0E09A01D8
:102F1000AB01282B392B4A2B5B2BDA01C9018F77A8
:102F20009070A070B07080349105A105B10539F49E
:102F300027FF09C0205C3F4F4F4F5F4F04C0215C0B
:102F40003F4F4F4F5F4FE0E0F0E02030A0E03A0706
:102F5000A0E04A07A0E45A0710F0E1E0F0E07901B0
:102F60008A0127C06038710564F5FB01E158FF4F05
:102F7000D801C7018F779070A070B0708034910530
:102F8000A105B10539F4E7FE0DC080E490E0A0E0B2
:102F9000B0E004C08FE390E0A0E0B0E0E80EF91EDE
:102FA0000A1F1B1F17FF05C016950795F794E79496
:102FB000319687E016950795F794E7948A95D1F7AF
:102FC00005C0EE24FF248701EFEFF0E06E2F679538
:102FD00066276795902F9F77D794DD24D7948E2FFF
:102FE0008695492F462B582F5D29B701CA011F919D
:102FF0000F91FF90EF90DF900895FC01DB0140817D
:1030000051812281622F6F7770E0221F2227221FB9
:103010009381892F880F822B282F30E0991F9927C1
:10302000991F11969C93119721153105A9F541150A
:1030300051056105710511F482E037C082E89FEF08
:1030400013969C938E9312979A01AB0167E0220F1F
:10305000331F441F551F6A95D1F783E08C930DC031
:10306000220F331F441F551F12968D919C91139769
:10307000019713969C938E931297203080E0380727
:1030800080E0480780E4580758F314962D933D9349
:103090004D935C93179708952F3F310579F44115AF
:1030A00051056105710519F484E08C93089564FF5E
:1030B00003C081E08C9312C01C9210C02F57304087
:1030C00013963C932E93129783E08C9387E0440FE2
:1030D000551F661F771F8A95D1F7706414964D931C
:1030E0005D936D937C93179708951F93DC01FB010B
:1030F0009C91923008F447C08081823008F443C02C
:10310000943051F411961C91843099F58181682F87
:1031100070E0611B71093FC0843021F0923031F4BE
:103120008230B9F18181882389F12DC011961C91DB
:1031300011978230F1F081811817D9F412962D91F0
:103140003C911397828193818217930794F02817FB
:103150003907BCF014968D919D910D90BC91A02DD6
:103160002481358146815781281739074A075B0733
:1031700018F4112341F00AC082179307A407B5077A
:1031800040F4112319F061E070E005C06FEF7FEFAC
:1031900002C060E070E0CB011F910895AA1BBB1B29
:1031A00051E107C0AA1FBB1FA617B70710F0A61B47
:1031B000B70B881F991F5A95A9F780959095BC0168
:1031C000CD01089597FB092E07260AD077FD04D07C
:1031D000E5DF06D000201AF4709561957F4F0895C1
:1031E000F6F7909581959F4F08952F923F924F92B9
:1031F0005F926F927F928F929F92AF92BF92CF9287
:10320000DF92EF92FF920F931F93CF93DF93CDB78F
:10321000DEB7CA1BDB0B0FB6F894DEBF0FBECDBF07
:1032200009942A88398848885F846E847D848C84D8
:103230009B84AA84B984C884DF80EE80FD800C81E1
:103240001B81AA81B981CE0FD11D0FB6F894DEBFC4
:103250000FBECDBFED010895DF93CF93CDB7DEB79D
:10326000FE0135966191719180919808909199082D
:10327000AF010E943E19CF91DF9108952F923F92A6
:103280004F925F926F927F928F929F92AF92BF9276
:10329000CF92DF92EF92FF920F931F93DF93CF9322
:1032A000CDB7DEB72B970FB6F894DEBF0FBECDBFFC
:1032B0003C012B015A01FC0117821682838181FD9A
:1032C00003C06FEF7FEFC6C19AE0892E1E010894FC
:1032D000211C311CF3012381F20123FD859123FF81
:1032E00081912F01882309F4B2C1853239F423FD7D
:1032F000859123FF81912F01853229F490E0B3015C
:103300000E945A1BE7CF982FFF24EE249924FFE157
:10331000FF15D0F09B3269F09C3228F4903259F0BE
:10332000933291F40EC09D3249F0903369F441E03C
:1033300024C052E0F52A84E0F82A28C098E0F92A4F
:1033400025C0E0E1FE2A22C0F7FC29C0892F805366
:103350008A3070F4F6FE05C0989C902C1124980ECB
:1033600015C0E89CE02C1124E80EF0E2FF2A0EC004
:103370009E3229F4F6FC6BC140E4F42A07C09C3667
:1033800019F450E8F52A02C0983649F4F20123FDF9
:10339000959123FF91912F01992309F0B8CF892F9F
:1033A0008554833018F08052833038F444E050E084
:1033B000A40EB51E5FE359830FC0933631F09337E7
:1033C00079F0933509F056C020C0F50180818983DA
:1033D00042E050E0A40EB51E610101E010E012C011
:1033E000F501C080D180F6FC03C06FEF7FEF02C013
:1033F000692D70E042E050E0A40EB51EC6010E94A7
:103400004F1B8C015FE7F52214C0F501C080D1800D
:10341000F6FC03C06FEF7FEF02C0692D70E042E061
:1034200050E0A40EB51EC6010E94441B8C0150E85A
:10343000F52AF3FE07C01AC080E290E0B3010E94B3
:103440005A1BEA948E2D90E008171907A8F30EC0B6
:10345000F601F7FC8591F7FE81916F0190E0B301D1
:103460000E945A1BE110EA94015010400115110509
:1034700079F7EAC0943611F0993669F5F7FE08C07D
:10348000F501208131814281538184E090E00AC0BE
:10349000F501808191819C01442737FD4095542F8F
:1034A00082E090E0A80EB91E9FE6F92257FF09C0FE
:1034B00050954095309521953F4F4F4F5F4FE0E835
:1034C000FE2ACA01B901A1012AE030E00E94861B50
:1034D000D82ED21840C0953729F41F2D1F7E2AE020
:1034E00030E01DC01F2D197F9F3661F0903720F40A
:1034F000983509F0ACC00FC0903739F0983709F013
:10350000A6C004C028E030E00AC0106114FD1460B9
:1035100020E130E004C014FD166020E132E017FF26
:1035200008C0F501608171818281938144E050E09F
:1035300008C0F50180819181BC0180E090E042E00B
:1035400050E0A40EB51EA1010E94861BD82ED218F1
:103550008FE7F82EF122F6FE0BC05EEFF522D914AC
:1035600038F4F4FE07C0F2FC05C08FEEF82202C06A
:103570001D2D01C0192DF4FE0DC0FE01ED0DF11D34
:103580008081803319F499EEF92208C01F5FF2FEA2
:1035900005C003C08F2D867809F01F5F0F2DF3FC47
:1035A00014C0F0FE0FC01E1510F09D2C0BC09D2CFA
:1035B0009E0C911A1E2D06C080E290E0B3010E947D
:1035C0005A1B1F5F1E15C0F304C01E1510F4E11A2C
:1035D00001C0EE2404FF0FC080E390E0B3010E941D
:1035E0005A1B02FF1DC001FD03C088E790E00EC01A
:1035F00088E590E00BC0802F867891F001FF02C033
:103600008BE201C080E2F7FC8DE290E0B3010E9402
:103610005A1B06C080E390E0B3010E945A1B9A94A3
:10362000D914C0F3DA94F101ED0DF11D808190E021
:10363000B3010E945A1BDD20A9F706C080E290E08A
:10364000B3010E945A1BEA94EE20C1F743CEF30166
:1036500066817781CB012B960FB6F894DEBF0FBE43
:10366000CDBFCF91DF911F910F91FF90EF90DF9031
:10367000CF90BF90AF909F908F907F906F905F9012
:103680004F903F902F900895FC010590615070403D
:103690000110D8F7809590958E0F9F1F0895FC011B
:1036A0006150704001900110D8F7809590958E0F71
:1036B0009F1F08950F931F93CF93DF938C01EB010E
:1036C0008B8181FF1BC082FF0DC02E813F818C81C9
:1036D0009D812817390764F4E881F9810193F98302
:1036E000E88306C0E885F985802F0995892B31F498
:1036F0008E819F8101969F838E8302C00FEF1FEF03
:10370000C801DF91CF911F910F910895FA01AA2767
:10371000283051F1203181F1E8946F936E7F6E5F14
:103720007F4F8F4F9F4FAF4FB1E03ED0B4E03CD0C2
:10373000670F781F891F9A1FA11D680F791F8A1FA5
:10374000911DA11D6A0F711D811D911DA11D20D00C
:1037500009F468943F912AE0269F11243019305DC6
:103760003193DEF6CF010895462F4770405D4193B7
:10377000B3E00FD0C9F7F6CF462F4F70405D4A3304
:1037800018F0495D31FD4052419302D0A9F7EACFCC
:10379000B4E0A6959795879577956795BA95C9F7FB
:1037A00000976105710508959B01AC010A2E0694EE
:1037B0005795479537952795BA95C9F7620F731FA7
:0C37C000841F951FA01D0895F894FFCFF2
:1037CC00546F7563687061643A000000000000007B
:1037DC0000000000000000000000000000183C3C4D
:1037EC003C181800181800000000000000666666FF
:1037FC000000000000000000000000000036367FD2
:10380C003636367F3636000000000018183C6660ED
:10381C0030180C06663C18180000000070D8DA76D8
:10382C000C18306E5B1B0E000000000000386C6C36
:10383C0038606F66663B0000000000000018181826
:10384C00000000000000000000000000000C181830
:10385C00303030303018180C0000000000301818D0
:10386C000C0C0C0C0C18183000000000000000367A
:10387C001C7F1C3600000000000000000000001837
:10388C00187E181800000000000000000000000066
:10389C00000000001C1C0C180000000000000000C0
:1038AC00007E00000000000000000000000000008E
:1038BC00000000001C1C0000000000000006060CAC
:1038CC000C1818303060600000000000001E333708
:1038DC0037333B3B331E000000000000000C1C7C07
:1038EC000C0C0C0C0C0C000000000000003C66667C
:1038FC00060C1830607E000000000000003C66667C
:10390C00061C0666663C00000000000000303036E5
:10391C003636667F0606000000000000007E606000
:10392C00607C06060C78000000000000001C1830BB
:10393C007C666666663C000000000000007E060C9B
:10394C000C1818303030000000000000003C666697
:10395C00763C6E66663C000000000000003C66662B
:10396C0066663E0C18380000000000000000001CC9
:10397C001C0000001C1C0000000000000000001CCB
:10398C001C0000001C1C0C180000000000060C1889
:10399C00306030180C060000000000000000000031
:1039AC007E007E0000000000000000000060301867
:1039BC000C060C183060000000000000003C66662D
:1039CC000C1818001818000000000000007EC3C37B
:1039DC00CFDBDBCFC07F00000000000000183C668E
:1039EC0066667E666666000000000000007C666607
:1039FC00667C6666667C000000000000003C666623
:103A0C0060606066663C00000000000000786C6638
:103A1C00666666666C78000000000000007E6060E0
:103A2C00607C6060607E000000000000007E6060D2
:103A3C00607C60606060000000000000003C666616
:103A4C0060606E66663E0000000000000066666600
:103A5C00667E66666666000000000000003C181872
:103A6C0018181818183C0000000000000006060684
:103A7C0006060666663C0000000000000066666CE8
:103A8C006C786C6C66660000000000000060606082
:103A9C0060606060607E000000000000006363777F
:103AAC006B6B6B6363630000000000000063637367
:103ABC007B6F67636363000000000000003C666678
:103ACC0066666666663C000000000000007C666668
:103ADC00667C60606060000000000000003C666670
:103AEC0066666666663C0C0600000000007C666636
:103AFC00667C6C666666000000000000003C666038
:103B0C0030180C06663C000000000000007E1818FF
:103B1C0018181818181800000000000000666666D7
:103B2C0066666666663C000000000000006666661D
:103B3C00666666663C180000000000000063636364
:103B4C006B6B6B3636360000000000000066663486
:103B5C0018182C6666660000000000000066666699
:103B6C00663C18181818000000000000007E0606BD
:103B7C000C183060607E000000000000003C30300B
:103B8C0030303030303030303C000000006060307D
:103B9C003018180C0C06060000000000003C0C0C41
:103BAC000C0C0C0C0C0C0C0C3C0000183C660000B3
:103BBC0000000000000000000000000000000000F9
:103BCC000000000000000000FF00000000181818A2
:103BDC000000000000000000000000000000003C9D
:103BEC0006063E66663E0000000000000060607C39
:103BFC0066666666667C0000000000000000003C03
:103C0C0066606060663C0000000000000006063E36
:103C1C0066666666663E0000000000000000003C20
:103C2C0066667E60603C000000000000001E3030C4
:103C3C00307E303030300000000000000000003ECC
:103C4C0066666666663E06067C0000000060607C68
:103C5C00666666666666000000000000181800784C
:103C6C0018181818187E0000000000000C0C003CFE
:103C7C000C0C0C0C0C0C0C0C78000000006060663A
:103C8C00666C786C666600000000000000781818FE
:103C9C0018181818187E0000000000000000007EA4
:103CAC006B6B6B6B6B630000000000000000007C12
:103CBC006666666666660000000000000000003C58
:103CCC0066666666663C0000000000000000007C32
:103CDC0066666666667C6060600000000000003E00
:103CEC0066666666663E0606060000000000006614
:103CFC006E70606060600000000000000000003E1C
:103D0C0060603C06067C0000000000000030307E45
:103D1C0030303030301E0000000000000000006623
:103D2C0066666666663E00000000000000000066E5
:103D3C00666666663C180000000000000000006328
:103D4C006B6B6B6B363600000000000000000066E9
:103D5C00663C183C6666000000000000000000662F
:103D6C0066666666663C0C18F00000000000007E7B
:103D7C00060C1830607E000000000000000C1818C3
:103D8C00183060301818180C0000000000181818B3
:103D9C0018181818181818181800000000301818DF
:103DAC00180C060C18181830000000000071DB8E7F
:103DBC0000000000000000000000646973706C617A
:103DCC00795074722D3E783D256C640D0A0064693F
:103DDC0073706C61795074723E793D256C640D0A78
:103DEC0000546F7563682063726F737368616972D6
:103DFC0020746F2063616C69627261746500780075
:103E0C0028002800C800C8000E01000000020000B5
:103E1C000000C811000000000000000000000000BD
:103E2C000001020203030303040404040404040455
:103E3C000505050505050505050505050505050526
:103E4C000606060606060606060606060606060606
:103E5C0006060606060606060606060606060606F6
:103E6C0007070707070707070707070707070707D6
:103E7C0007070707070707070707070707070707C6
:103E8C0007070707070707070707070707070707B6
:103E9C0007070707070707070707070707070707A6
:103EAC000808080808080808080808080808080886
:103EBC000808080808080808080808080808080876
:103ECC000808080808080808080808080808080866
:103EDC000808080808080808080808080808080856
:103EEC000808080808080808080808080808080846
:103EFC000808080808080808080808080808080836
:103F0C000808080808080808080808080808080825
:103F1C000808080808080808080808080808080815
:00000001FF
