:100000000C9446000C9465000C9465000C946500FB
:100010000C9465000C9465000C9465000C946500CC
:100020000C9465000C9465000C9465000C946500BC
:100030000C9465000C9465000C9465000C946500AC
:100040000C9465000C9465000C9465000C9465009C
:100050000C9465000C9465000C9465000C9465008C
:100060000C9465000C9465000C9465000C9465007C
:100070000C9465000C9465000C9465000C9465006C
:100080000C9465000C9465000C94650011241FBE4F
:10009000CFEFD0E1DEBFCDBF11E0A0E0B1E0E8E4FA
:1000A000F5E000E00BBF02C007900D92A632B10749
:1000B000D9F711E0A6E2B1E001C01D92A636B10762
:1000C000E1F70E9423020C9484020C9400008FB983
:1000D000779BFECF0895982F88EF8FB9779BFECF3F
:1000E000892F807F8FB9779BFECF9295907F9FB9A4
:1000F000779BFECF88EB8A95F1F70895982F8AEFCA
:100100008FB9779BFECF892F807F8FB9779BFECFEA
:100110009295907F9FB9779BFECF88EB8A95F1F7F8
:100120000895CF92DF92EF92FF920F931F93CF9398
:10013000DF936C0182E00E946B00C0E0D0E0F6012A
:10014000EC0FFD1F80810E947E002196C031D105F9
:10015000B1F77601E60100E288A10E947E000F5F00
:1001600021960033C9F710E1F70180890E947E00D3
:100170001F5F0894E11CF11C1032B1F7E601E09614
:1001800089910E947E000F5F0034D1F7DF91CF91FB
:100190001F910F91FF90EF90DF90CF9008951F93E4
:1001A000FC019B0110E343C0433021F1443028F4AB
:1001B0004130B1F14230C1F528C0443069F04530DA
:1001C00099F5C90160E177E20E948E02605D60836B
:1001D000C90160E177E20AC0C90168EE73E00E94DC
:1001E0008E02605D6083C90168EE73E00E948E023A
:1001F0009C011BC0C90164E670E00E948E02605D34
:100200006083C90164E670E0F1CFC9016AE070E083
:100210000E948E02605D6083C9016AE070E0E6CFF3
:10022000205D2083205301C0108341503196442328
:1002300009F0BACF1F910895CF92DF92EF92FF920B
:100240000F931F93CF93DF93FC01EB01CD2FDD279D
:10025000C295CF7027E3D22EDC0E90E3E92EEC0E90
:10026000A72FBB27AF70B07017E3F12EFA0E0A2F3D
:10027000005D9B0154E0369527955A95E1F72F7064
:100280003070822F122F195C805D90E3C92E6F7041
:100290007070562F505D962F995C2AC04230B9F08D
:1002A000433018F4413009F519C0433049F0443067
:1002B000E1F4CA30D10510F0D08218C0E08216C037
:1002C000AA30B10510F0F08211C000830FC02A30AF
:1002D000310510F010830AC0808308C06A307105B0
:1002E00010F0908303C0508301C0C082415031960A
:1002F0004423A1F6DF91CF911F910F91FF90EF90D2
:10030000DF90CF90089587B3876887BB88B3886FE5
:1003100088BB80E58DB981E08EB98CE00E946B00CE
:1003200081E00E946B0086E69EE00197F1F786E28D
:1003300091E060E270E040E450E00E94870208959E
:10034000AF92BF92CF92DF92EF92FF920F93DF9323
:10035000CF93CDB7DEB70D85AE84BF84E888F9882A
:100360000295007F8C85080FDE0152965DC0013436
:1003700008F05FC08C3551F40894E11CF11C950124
:10038000200F311DF7018081F90149C0853209F044
:1003900043C00894E11CF11CF7018081843611F000
:1003A000843499F40894E11CF11C52E0C52ED12C40
:1003B000CA0EDB1E6D917C91F70140814053C5014F
:1003C000800F911D0E94CF0021C0833611F083342D
:1003D00039F4F501E00FF11D8C918083129620C055
:1003E000883711F08835E1F40894E11CF11C42E0F3
:1003F000C42ED12CCA0EDB1E6D917C91F701408179
:100400004053C501800F911D0E941C010153F7014B
:100410008081080FD60104C0F501E00FF11D808333
:100420000894E11CF11C0F5FF7018081882309F01B
:100430009ECFCF91DF910F91FF90EF90DF90CF9003
:10044000BF90AF900895BF92CF92DF92EF92FF924C
:100450000F931F93CF93DF930E94830100D000D0AE
:1004600000D0EDB7FEB7319683E0ADB7BEB71196B9
:100470008C9382E0818306E211E01383028380E0A3
:1004800091E0958384830E94A0018DB79EB7069664
:100490000FB6F8949EBF0FBE8DBFC8010E94910099
:1004A00072E0F72EBB24B394E02E012F6AE0C62E33
:1004B00061E0D62EC7E1D1E000D000D000D0EDB78A
:1004C000FEB73196ADB7BEB71196FC92B182E2820B
:1004D0000383D582C4820E94A001EDB7FEB7319696
:1004E000ADB7BEB71196FC92F182E2820383D58349
:1004F000C4830E94A0018DB79EB706960FB6F894EC
:100500009EBF0FBE8DBFD8CFF8940C94A202DC0121
:1005100001C06D9341505040E0F70895AA1BBB1BEA
:1005200051E107C0AA1FBB1FA617B70710F0A61BF3
:10053000B70B881F991F5A95A9F780959095BC0114
:08054000CD010895F894FFCFEE
:1005480077617665736861726500C9EEDBDACEA201
:10055800D1A9B5E7D7D3007761766573686172650D
:060568002E6E6574000018
:00000001FF
