:100000000C9446000C945D000C945D000C945D0013
:100010000C945D000C945D000C945D000C945D00EC
:100020000C945D000C945D000C945D000C945D00DC
:100030000C945D000C945D000C945D000C945D00CC
:100040000C945D000C945D000C945D000C945D00BC
:100050000C945D000C945D000C945D000C945D00AC
:100060000C945D000C945D000C945D000C945D009C
:100070000C945D000C945D000C94D6000C945D0013
:100080000C945D000C945D000C945D0011241FBE67
:10009000CFEFD0E1DEBFCDBF11E0A0E0B1E0E4E6FC
:1000A000F2E000E00BBF02C007900D92A030B10754
:1000B000D9F70E941E010C9430010C940000DF93CC
:1000C000CF93CDB7DEB7EBE9F0E01082EAE9F0E0DC
:1000D00088E98083EDE9F0E086E08083E8E9F0E0FC
:1000E0001082E9E9F0E08FE28083CF91DF910895FB
:1000F000DF93CF930F92CDB7DEB78983EBE9F0E0C2
:100100008081882F90E0807290700097B9F3ECE9BD
:10011000F0E0898180830F90CF91DF910895DF9384
:10012000CF9300D000D0CDB7DEB7EBE9F0E080810F
:1001300088232CF02FEF3FEF3C832B8319C0EBE992
:10014000F0E080818A83ECE9F0E0808189838A8114
:10015000882F90E08C719070009729F08FEF9FEFBF
:100160009C838B8305C08981282F30E03C832B83BF
:100170008B819C810F900F900F900F90CF91DF910A
:100180000895DF93CF9300D0CDB7DEB70E948F00E4
:100190009A83898389819A812FEF8F3F9207B1F3E8
:1001A00089810F900F90CF91DF9108951F920F9248
:1001B0000FB60F9200905B000F9211242F933F9384
:1001C0004F935F936F937F938F939F93AF93BF935F
:1001D000EF93FF93DF93CF9300D0CDB7DEB7EBE97A
:1001E000F0E08081882324F0EBE9F0E080818A83CD
:1001F000ECE9F0E0808189838A81882F90E08C711E
:100200009070009719F089810E9478000F900F90EC
:10021000CF91DF91FF91EF91BF91AF919F918F911E
:100220007F916F915F914F913F912F910F9000922D
:100230005B000F900FBE0F901F901895DF93CF9328
:10024000CDB7DEB7E7E3F0E08FEF8083E8E3F0E0DF
:10025000108278940E945F0085E50E947800FCCFB0
:04026000F894FFCF40
:00000001FF
